{
  "contractName": "AnimalBase",
  "abi": [
    {
      "anonymous": false,
      "inputs": [
        {
          "indexed": false,
          "internalType": "address",
          "name": "owner",
          "type": "address"
        },
        {
          "indexed": false,
          "internalType": "uint256",
          "name": "animalId",
          "type": "uint256"
        },
        {
          "indexed": false,
          "internalType": "uint256",
          "name": "matronId",
          "type": "uint256"
        },
        {
          "indexed": false,
          "internalType": "uint256",
          "name": "sireId",
          "type": "uint256"
        },
        {
          "indexed": false,
          "internalType": "enum Species",
          "name": "species",
          "type": "uint8"
        },
        {
          "indexed": false,
          "internalType": "uint8",
          "name": "genes",
          "type": "uint8"
        },
        {
          "indexed": false,
          "internalType": "uint8",
          "name": "generation",
          "type": "uint8"
        }
      ],
      "name": "Birth",
      "type": "event"
    },
    {
      "inputs": [
        {
          "internalType": "uint256",
          "name": "",
          "type": "uint256"
        }
      ],
      "name": "animalIndexToApproved",
      "outputs": [
        {
          "internalType": "address",
          "name": "",
          "type": "address"
        }
      ],
      "stateMutability": "view",
      "type": "function"
    },
    {
      "inputs": [
        {
          "internalType": "uint256",
          "name": "",
          "type": "uint256"
        }
      ],
      "name": "animalIndexToOwner",
      "outputs": [
        {
          "internalType": "address",
          "name": "",
          "type": "address"
        }
      ],
      "stateMutability": "view",
      "type": "function"
    },
    {
      "inputs": [
        {
          "internalType": "uint256",
          "name": "",
          "type": "uint256"
        }
      ],
      "name": "animals",
      "outputs": [
        {
          "internalType": "uint8",
          "name": "genes",
          "type": "uint8"
        },
        {
          "internalType": "uint256",
          "name": "matronId",
          "type": "uint256"
        },
        {
          "internalType": "uint256",
          "name": "sireId",
          "type": "uint256"
        },
        {
          "internalType": "enum Species",
          "name": "species",
          "type": "uint8"
        },
        {
          "internalType": "uint8",
          "name": "generation",
          "type": "uint8"
        }
      ],
      "stateMutability": "view",
      "type": "function"
    },
    {
      "inputs": [],
      "name": "ceoAddress",
      "outputs": [
        {
          "internalType": "address",
          "name": "",
          "type": "address"
        }
      ],
      "stateMutability": "view",
      "type": "function"
    },
    {
      "inputs": [],
      "name": "cfoAddress",
      "outputs": [
        {
          "internalType": "address",
          "name": "",
          "type": "address"
        }
      ],
      "stateMutability": "view",
      "type": "function"
    },
    {
      "inputs": [],
      "name": "cooAddress",
      "outputs": [
        {
          "internalType": "address",
          "name": "",
          "type": "address"
        }
      ],
      "stateMutability": "view",
      "type": "function"
    },
    {
      "inputs": [
        {
          "internalType": "uint256",
          "name": "",
          "type": "uint256"
        }
      ],
      "name": "cooldowns",
      "outputs": [
        {
          "internalType": "uint32",
          "name": "",
          "type": "uint32"
        }
      ],
      "stateMutability": "view",
      "type": "function"
    },
    {
      "inputs": [],
      "name": "pause",
      "outputs": [],
      "stateMutability": "nonpayable",
      "type": "function"
    },
    {
      "inputs": [],
      "name": "paused",
      "outputs": [
        {
          "internalType": "bool",
          "name": "",
          "type": "bool"
        }
      ],
      "stateMutability": "view",
      "type": "function"
    },
    {
      "inputs": [],
      "name": "saleAuction",
      "outputs": [
        {
          "internalType": "contract SaleClockAuction",
          "name": "",
          "type": "address"
        }
      ],
      "stateMutability": "view",
      "type": "function"
    },
    {
      "inputs": [],
      "name": "secondsPerBlock",
      "outputs": [
        {
          "internalType": "uint256",
          "name": "",
          "type": "uint256"
        }
      ],
      "stateMutability": "view",
      "type": "function"
    },
    {
      "inputs": [
        {
          "internalType": "address",
          "name": "_newCEO",
          "type": "address"
        }
      ],
      "name": "setCEO",
      "outputs": [],
      "stateMutability": "nonpayable",
      "type": "function"
    },
    {
      "inputs": [
        {
          "internalType": "address",
          "name": "_newCFO",
          "type": "address"
        }
      ],
      "name": "setCFO",
      "outputs": [],
      "stateMutability": "nonpayable",
      "type": "function"
    },
    {
      "inputs": [
        {
          "internalType": "address",
          "name": "_newCOO",
          "type": "address"
        }
      ],
      "name": "setCOO",
      "outputs": [],
      "stateMutability": "nonpayable",
      "type": "function"
    },
    {
      "inputs": [
        {
          "internalType": "uint256",
          "name": "",
          "type": "uint256"
        }
      ],
      "name": "sireAllowedToAddress",
      "outputs": [
        {
          "internalType": "address",
          "name": "",
          "type": "address"
        }
      ],
      "stateMutability": "view",
      "type": "function"
    },
    {
      "inputs": [],
      "name": "unpause",
      "outputs": [],
      "stateMutability": "nonpayable",
      "type": "function"
    }
  ],
  "bytecode": "0x60806040526000600260146101000a81548160ff0219169083151502179055506040518060a0016040528061384063ffffffff1663ffffffff1681526020016201518063ffffffff1663ffffffff1681526020016203f48063ffffffff1663ffffffff16815260200162093a8063ffffffff1663ffffffff16815260200162278d0063ffffffff1663ffffffff1681525060039060056100a09291906100b8565b50600f6005553480156100b257600080fd5b50610178565b82600e60070160089004810192821561014a5791602002820160005b8382111561011857835183826101000a81548163ffffffff021916908363ffffffff16021790555092602001926004016020816003010492830192600103026100d4565b80156101485782816101000a81549063ffffffff0219169055600401602081600301049283019260010302610118565b505b509050610157919061015b565b5090565b5b8082111561017457600081600090555060010161015c565b5090565b610c5c806101876000396000f3fe608060405234801561001057600080fd5b50600436106101005760003560e01c80637a7d4937116100975780639d6fac6f116100665780639d6fac6f14610279578063b047fb50146102a9578063b2c07292146102c7578063e6cbe351146102f757610100565b80637a7d4937146101ed5780638456cb591461020b57806398cf8ae614610215578063998dd3ca1461024557610100565b80633f4ba83a116100d35780633f4ba83a1461017957806346116e6f146101835780634e0a3379146101b35780635c975abb146101cf57610100565b80630519ce79146101055780630a0f81681461012357806327d7874c146101415780632ba73c151461015d575b600080fd5b61010d610315565b60405161011a9190610a2d565b60405180910390f35b61012b61033b565b6040516101389190610a2d565b60405180910390f35b61015b60048036038101906101569190610972565b61035f565b005b61017760048036038101906101729190610972565b610434565b005b61018161050a565b005b61019d6004803603810190610198919061099b565b610598565b6040516101aa9190610a2d565b60405180910390f35b6101cd60048036038101906101c89190610972565b6105cb565b005b6101d76106a1565b6040516101e49190610a48565b60405180910390f35b6101f56106b4565b6040516102029190610a7e565b60405180910390f35b6102136106ba565b005b61022f600480360381019061022a919061099b565b6107f9565b60405161023c9190610a2d565b60405180910390f35b61025f600480360381019061025a919061099b565b61082c565b604051610270959493929190610ab4565b60405180910390f35b610293600480360381019061028e919061099b565b610899565b6040516102a09190610a99565b60405180910390f35b6102b16108c9565b6040516102be9190610a2d565b60405180910390f35b6102e160048036038101906102dc919061099b565b6108ef565b6040516102ee9190610a2d565b60405180910390f35b6102ff610922565b60405161030c9190610a63565b60405180910390f35b600160009054906101000a900473ffffffffffffffffffffffffffffffffffffffff1681565b60008054906101000a900473ffffffffffffffffffffffffffffffffffffffff1681565b60008054906101000a900473ffffffffffffffffffffffffffffffffffffffff1673ffffffffffffffffffffffffffffffffffffffff163373ffffffffffffffffffffffffffffffffffffffff16146103b757600080fd5b600073ffffffffffffffffffffffffffffffffffffffff168173ffffffffffffffffffffffffffffffffffffffff1614156103f157600080fd5b806000806101000a81548173ffffffffffffffffffffffffffffffffffffffff021916908373ffffffffffffffffffffffffffffffffffffffff16021790555050565b60008054906101000a900473ffffffffffffffffffffffffffffffffffffffff1673ffffffffffffffffffffffffffffffffffffffff163373ffffffffffffffffffffffffffffffffffffffff161461048c57600080fd5b600073ffffffffffffffffffffffffffffffffffffffff168173ffffffffffffffffffffffffffffffffffffffff1614156104c657600080fd5b80600260006101000a81548173ffffffffffffffffffffffffffffffffffffffff021916908373ffffffffffffffffffffffffffffffffffffffff16021790555050565b60008054906101000a900473ffffffffffffffffffffffffffffffffffffffff1673ffffffffffffffffffffffffffffffffffffffff163373ffffffffffffffffffffffffffffffffffffffff161461056257600080fd5b600260149054906101000a900460ff1661057b57600080fd5b6000600260146101000a81548160ff021916908315150217905550565b600a6020528060005260406000206000915054906101000a900473ffffffffffffffffffffffffffffffffffffffff1681565b60008054906101000a900473ffffffffffffffffffffffffffffffffffffffff1673ffffffffffffffffffffffffffffffffffffffff163373ffffffffffffffffffffffffffffffffffffffff161461062357600080fd5b600073ffffffffffffffffffffffffffffffffffffffff168173ffffffffffffffffffffffffffffffffffffffff16141561065d57600080fd5b80600160006101000a81548173ffffffffffffffffffffffffffffffffffffffff021916908373ffffffffffffffffffffffffffffffffffffffff16021790555050565b600260149054906101000a900460ff1681565b60055481565b600260009054906101000a900473ffffffffffffffffffffffffffffffffffffffff1673ffffffffffffffffffffffffffffffffffffffff163373ffffffffffffffffffffffffffffffffffffffff161480610761575060008054906101000a900473ffffffffffffffffffffffffffffffffffffffff1673ffffffffffffffffffffffffffffffffffffffff163373ffffffffffffffffffffffffffffffffffffffff16145b806107b95750600160009054906101000a900473ffffffffffffffffffffffffffffffffffffffff1673ffffffffffffffffffffffffffffffffffffffff163373ffffffffffffffffffffffffffffffffffffffff16145b6107c257600080fd5b600260149054906101000a900460ff16156107dc57600080fd5b6001600260146101000a81548160ff021916908315150217905550565b60076020528060005260406000206000915054906101000a900473ffffffffffffffffffffffffffffffffffffffff1681565b6006818154811061083c57600080fd5b90600052602060002090600402016000915090508060000160009054906101000a900460ff16908060010154908060020154908060030160009054906101000a900460ff16908060030160019054906101000a900460ff16905085565b600381600e81106108a957600080fd5b60089182820401919006600402915054906101000a900463ffffffff1681565b600260009054906101000a900473ffffffffffffffffffffffffffffffffffffffff1681565b60096020528060005260406000206000915054906101000a900473ffffffffffffffffffffffffffffffffffffffff1681565b600b60009054906101000a900473ffffffffffffffffffffffffffffffffffffffff1681565b60008135905061095781610bf8565b92915050565b60008135905061096c81610c0f565b92915050565b60006020828403121561098457600080fd5b600061099284828501610948565b91505092915050565b6000602082840312156109ad57600080fd5b60006109bb8482850161095d565b91505092915050565b6109cd81610b07565b82525050565b6109dc81610b19565b82525050565b6109eb81610b7f565b82525050565b6109fa81610ba3565b82525050565b610a0981610b58565b82525050565b610a1881610b62565b82525050565b610a2781610b72565b82525050565b6000602082019050610a4260008301846109c4565b92915050565b6000602082019050610a5d60008301846109d3565b92915050565b6000602082019050610a7860008301846109e2565b92915050565b6000602082019050610a936000830184610a00565b92915050565b6000602082019050610aae6000830184610a0f565b92915050565b600060a082019050610ac96000830188610a1e565b610ad66020830187610a00565b610ae36040830186610a00565b610af060608301856109f1565b610afd6080830184610a1e565b9695505050505050565b6000610b1282610b38565b9050919050565b60008115159050919050565b6000819050610b3382610be4565b919050565b600073ffffffffffffffffffffffffffffffffffffffff82169050919050565b6000819050919050565b600063ffffffff82169050919050565b600060ff82169050919050565b6000610b8a82610b91565b9050919050565b6000610b9c82610b38565b9050919050565b6000610bae82610b25565b9050919050565b7f4e487b7100000000000000000000000000000000000000000000000000000000600052602160045260246000fd5b60118110610bf557610bf4610bb5565b5b50565b610c0181610b07565b8114610c0c57600080fd5b50565b610c1881610b58565b8114610c2357600080fd5b5056fea26469706673582212201467e0043883bc035a0db65b3c003d8eee5e7baeb3967a1bcf981e9f6921643364736f6c63430008040033",
  "immutableReferences": {},
  "source": "// SPDX-License-Identifier: UNLICENSED\npragma solidity ^0.8.4;\nimport \"./AnimalControl.sol\";\nimport \"./animals.sol\";\nimport \"./SaleClockAuction.sol\";\n\ncontract AnimalBase is AnimalControl {\n\n    /// @dev The Birth event is fired whenever a new kitten comes into existence. This obviously\n    ///  includes any time a animal is created through the giveBirth method, but it is also called\n    ///  when a new gen0 animal is created.\n    event Birth(\n        address owner,\n        uint256 animalId,\n        uint256 matronId,\n        uint256 sireId,\n        Species species,\n        uint8 genes,\n        uint8 generation\n    );\n\n    /// @dev Transfer event as defined in current draft of ERC721. Emitted every time a kitten\n    ///  ownership is assigned, including births.\n    // event Transfer(address from, address to, uint256 tokenId);    \n\n\n    struct Animal {\n        uint8 genes;\n        uint256 matronId;\n        uint256 sireId;\n        Species species;\n        uint8 generation;\n    }\n\n    /// @dev A lookup table indianimaling the cooldown duration after any successful\n    ///  breeding action, called \"pregnancy time\" for matrons and \"siring cooldown\"\n    ///  for sires. Designed such that the cooldown roughly doubles each time a animal\n    ///  is bred, encouraging owners not to just keep breeding the same animal over\n    ///  and over again. Caps out at one week (a animal can breed an unbounded number\n    ///  of times, and the maximum cooldown is always seven days).\n    uint32[14] public cooldowns = [\n        uint32(4 hours),\n        uint32(1 days),\n        uint32(3 days),\n        uint32(7 days),\n        uint32(30 days)\n    ];\n\n    // An approximation of currently how many seconds are in between blocks.\n    uint256 public secondsPerBlock = 15;\n\n    // list of existing animals\n    Animal[] public animals;\n\n    /// @dev A mapping from animal IDs to the address that owns them. All animals have\n    ///  some valid owner address, even gen0 animals are created with a non-zero owner.\n    mapping (uint256 => address) public animalIndexToOwner;\n\n    // @dev A mapping from owner address to count of tokens that address owns.\n    //  Used internally inside balanceOf() to resolve ownership count.\n    mapping (address => uint256) ownershipTokenCount;\n\n    /// @dev A mapping from AddressIDs to an address that has been approved to call\n    ///  transferFrom(). Each Address can only have one approved address for transfer\n    ///  at any time. A zero value means no approval is outstanding.\n    mapping (uint256 => address) public animalIndexToApproved;\n\n    /// @dev A mapping from AddressIDs to an address that has been approved to use\n    ///  this Address for siring via breedWith(). Each Address can only have one approved\n    ///  address for siring at any time. A zero value means no approval is outstanding.\n    mapping (uint256 => address) public sireAllowedToAddress;    \n\n    /// @dev The address of the ClockAuction contract that handles sales of Kitties. This\n    ///  same contract handles both peer-to-peer sales as well as the gen0 sales which are\n    ///  initiated every 15 minutes.\n    SaleClockAuction public saleAuction;\n}",
  "sourcePath": "E:/general_work/upwork/202105/CryptoZoo-NFT3-main/contracts/AnimalBase.sol",
  "compiler": {
    "name": "solc",
    "version": "0.8.4+commit.c7e474f2.Emscripten.clang"
  },
  "schemaVersion": "3.4.0",
  "updatedAt": "2021-05-06T01:59:29.789Z",
  "devdoc": {
    "events": {
      "Birth(address,uint256,uint256,uint256,uint8,uint8,uint8)": {
        "details": "The Birth event is fired whenever a new kitten comes into existence. This obviously  includes any time a animal is created through the giveBirth method, but it is also called  when a new gen0 animal is created."
      }
    },
    "kind": "dev",
    "methods": {
      "pause()": {
        "details": "Called by any \"C-level\" role to pause the contract. Used only when  a bug or exploit is detected and we need to limit damage."
      },
      "setCEO(address)": {
        "details": "Assigns a new address to act as the CEO. Only available to the current CEO.",
        "params": {
          "_newCEO": "The address of the new CEO"
        }
      },
      "setCFO(address)": {
        "details": "Assigns a new address to act as the CFO. Only available to the current CEO.",
        "params": {
          "_newCFO": "The address of the new CFO"
        }
      },
      "setCOO(address)": {
        "details": "Assigns a new address to act as the COO. Only available to the current CEO.",
        "params": {
          "_newCOO": "The address of the new COO"
        }
      },
      "unpause()": {
        "details": "Unpauses the smart contract. Can only be called by the CEO, since  one reason we may pause the contract is when CFO or COO accounts are  compromised."
      }
    },
    "stateVariables": {
      "animalIndexToApproved": {
        "details": "A mapping from AddressIDs to an address that has been approved to call  transferFrom(). Each Address can only have one approved address for transfer  at any time. A zero value means no approval is outstanding."
      },
      "animalIndexToOwner": {
        "details": "A mapping from animal IDs to the address that owns them. All animals have  some valid owner address, even gen0 animals are created with a non-zero owner."
      },
      "cooldowns": {
        "details": "A lookup table indianimaling the cooldown duration after any successful  breeding action, called \"pregnancy time\" for matrons and \"siring cooldown\"  for sires. Designed such that the cooldown roughly doubles each time a animal  is bred, encouraging owners not to just keep breeding the same animal over  and over again. Caps out at one week (a animal can breed an unbounded number  of times, and the maximum cooldown is always seven days)."
      },
      "saleAuction": {
        "details": "The address of the ClockAuction contract that handles sales of Kitties. This  same contract handles both peer-to-peer sales as well as the gen0 sales which are  initiated every 15 minutes."
      },
      "sireAllowedToAddress": {
        "details": "A mapping from AddressIDs to an address that has been approved to use  this Address for siring via breedWith(). Each Address can only have one approved  address for siring at any time. A zero value means no approval is outstanding."
      }
    },
    "version": 1
  },
  "userdoc": {
    "kind": "user",
    "methods": {
      "unpause()": {
        "notice": "This is public rather than external so it can be called by  derived contracts."
      }
    },
    "version": 1
  }
}