{
  "contractName": "CryptoZoo",
  "abi": [
    {
      "inputs": [],
      "stateMutability": "nonpayable",
      "type": "constructor"
    },
    {
      "anonymous": false,
      "inputs": [
        {
          "indexed": true,
          "internalType": "address",
          "name": "owner",
          "type": "address"
        },
        {
          "indexed": true,
          "internalType": "address",
          "name": "approved",
          "type": "address"
        },
        {
          "indexed": true,
          "internalType": "uint256",
          "name": "tokenId",
          "type": "uint256"
        }
      ],
      "name": "Approval",
      "type": "event"
    },
    {
      "anonymous": false,
      "inputs": [
        {
          "indexed": true,
          "internalType": "address",
          "name": "owner",
          "type": "address"
        },
        {
          "indexed": true,
          "internalType": "address",
          "name": "operator",
          "type": "address"
        },
        {
          "indexed": false,
          "internalType": "bool",
          "name": "approved",
          "type": "bool"
        }
      ],
      "name": "ApprovalForAll",
      "type": "event"
    },
    {
      "anonymous": false,
      "inputs": [
        {
          "indexed": false,
          "internalType": "address",
          "name": "owner",
          "type": "address"
        },
        {
          "indexed": false,
          "internalType": "uint256",
          "name": "animalId",
          "type": "uint256"
        },
        {
          "indexed": false,
          "internalType": "uint256",
          "name": "matronId",
          "type": "uint256"
        },
        {
          "indexed": false,
          "internalType": "uint256",
          "name": "sireId",
          "type": "uint256"
        },
        {
          "indexed": false,
          "internalType": "enum Species",
          "name": "species",
          "type": "uint8"
        },
        {
          "indexed": false,
          "internalType": "uint8",
          "name": "genes",
          "type": "uint8"
        },
        {
          "indexed": false,
          "internalType": "uint8",
          "name": "generation",
          "type": "uint8"
        }
      ],
      "name": "Birth",
      "type": "event"
    },
    {
      "anonymous": false,
      "inputs": [
        {
          "indexed": true,
          "internalType": "address",
          "name": "from",
          "type": "address"
        },
        {
          "indexed": true,
          "internalType": "address",
          "name": "to",
          "type": "address"
        },
        {
          "indexed": true,
          "internalType": "uint256",
          "name": "tokenId",
          "type": "uint256"
        }
      ],
      "name": "Transfer",
      "type": "event"
    },
    {
      "stateMutability": "payable",
      "type": "fallback",
      "payable": true
    },
    {
      "inputs": [
        {
          "internalType": "uint256",
          "name": "",
          "type": "uint256"
        }
      ],
      "name": "animalIndexToApproved",
      "outputs": [
        {
          "internalType": "address",
          "name": "",
          "type": "address"
        }
      ],
      "stateMutability": "view",
      "type": "function",
      "constant": true
    },
    {
      "inputs": [
        {
          "internalType": "uint256",
          "name": "",
          "type": "uint256"
        }
      ],
      "name": "animalIndexToOwner",
      "outputs": [
        {
          "internalType": "address",
          "name": "",
          "type": "address"
        }
      ],
      "stateMutability": "view",
      "type": "function",
      "constant": true
    },
    {
      "inputs": [
        {
          "internalType": "uint256",
          "name": "",
          "type": "uint256"
        }
      ],
      "name": "animals",
      "outputs": [
        {
          "internalType": "uint8",
          "name": "genes",
          "type": "uint8"
        },
        {
          "internalType": "uint256",
          "name": "matronId",
          "type": "uint256"
        },
        {
          "internalType": "uint256",
          "name": "sireId",
          "type": "uint256"
        },
        {
          "internalType": "enum Species",
          "name": "species",
          "type": "uint8"
        },
        {
          "internalType": "uint8",
          "name": "generation",
          "type": "uint8"
        }
      ],
      "stateMutability": "view",
      "type": "function",
      "constant": true
    },
    {
      "inputs": [
        {
          "internalType": "address",
          "name": "to",
          "type": "address"
        },
        {
          "internalType": "uint256",
          "name": "tokenId",
          "type": "uint256"
        }
      ],
      "name": "approve",
      "outputs": [],
      "stateMutability": "nonpayable",
      "type": "function"
    },
    {
      "inputs": [
        {
          "internalType": "address",
          "name": "owner",
          "type": "address"
        }
      ],
      "name": "balanceOf",
      "outputs": [
        {
          "internalType": "uint256",
          "name": "",
          "type": "uint256"
        }
      ],
      "stateMutability": "view",
      "type": "function",
      "constant": true
    },
    {
      "inputs": [],
      "name": "ceoAddress",
      "outputs": [
        {
          "internalType": "address",
          "name": "",
          "type": "address"
        }
      ],
      "stateMutability": "view",
      "type": "function",
      "constant": true
    },
    {
      "inputs": [],
      "name": "cfoAddress",
      "outputs": [
        {
          "internalType": "address",
          "name": "",
          "type": "address"
        }
      ],
      "stateMutability": "view",
      "type": "function",
      "constant": true
    },
    {
      "inputs": [],
      "name": "cooAddress",
      "outputs": [
        {
          "internalType": "address",
          "name": "",
          "type": "address"
        }
      ],
      "stateMutability": "view",
      "type": "function",
      "constant": true
    },
    {
      "inputs": [
        {
          "internalType": "uint256",
          "name": "",
          "type": "uint256"
        }
      ],
      "name": "cooldowns",
      "outputs": [
        {
          "internalType": "uint32",
          "name": "",
          "type": "uint32"
        }
      ],
      "stateMutability": "view",
      "type": "function",
      "constant": true
    },
    {
      "inputs": [
        {
          "internalType": "uint256",
          "name": "tokenId",
          "type": "uint256"
        }
      ],
      "name": "getApproved",
      "outputs": [
        {
          "internalType": "address",
          "name": "",
          "type": "address"
        }
      ],
      "stateMutability": "view",
      "type": "function",
      "constant": true
    },
    {
      "inputs": [
        {
          "internalType": "address",
          "name": "owner",
          "type": "address"
        },
        {
          "internalType": "address",
          "name": "operator",
          "type": "address"
        }
      ],
      "name": "isApprovedForAll",
      "outputs": [
        {
          "internalType": "bool",
          "name": "",
          "type": "bool"
        }
      ],
      "stateMutability": "view",
      "type": "function",
      "constant": true
    },
    {
      "inputs": [],
      "name": "name",
      "outputs": [
        {
          "internalType": "string",
          "name": "",
          "type": "string"
        }
      ],
      "stateMutability": "view",
      "type": "function",
      "constant": true
    },
    {
      "inputs": [
        {
          "internalType": "uint256",
          "name": "tokenId",
          "type": "uint256"
        }
      ],
      "name": "ownerOf",
      "outputs": [
        {
          "internalType": "address",
          "name": "",
          "type": "address"
        }
      ],
      "stateMutability": "view",
      "type": "function",
      "constant": true
    },
    {
      "inputs": [],
      "name": "pause",
      "outputs": [],
      "stateMutability": "nonpayable",
      "type": "function"
    },
    {
      "inputs": [],
      "name": "paused",
      "outputs": [
        {
          "internalType": "bool",
          "name": "",
          "type": "bool"
        }
      ],
      "stateMutability": "view",
      "type": "function",
      "constant": true
    },
    {
      "inputs": [
        {
          "internalType": "address",
          "name": "from",
          "type": "address"
        },
        {
          "internalType": "address",
          "name": "to",
          "type": "address"
        },
        {
          "internalType": "uint256",
          "name": "tokenId",
          "type": "uint256"
        }
      ],
      "name": "safeTransferFrom",
      "outputs": [],
      "stateMutability": "nonpayable",
      "type": "function"
    },
    {
      "inputs": [
        {
          "internalType": "address",
          "name": "from",
          "type": "address"
        },
        {
          "internalType": "address",
          "name": "to",
          "type": "address"
        },
        {
          "internalType": "uint256",
          "name": "tokenId",
          "type": "uint256"
        },
        {
          "internalType": "bytes",
          "name": "_data",
          "type": "bytes"
        }
      ],
      "name": "safeTransferFrom",
      "outputs": [],
      "stateMutability": "nonpayable",
      "type": "function"
    },
    {
      "inputs": [],
      "name": "saleAuction",
      "outputs": [
        {
          "internalType": "contract SaleClockAuction",
          "name": "",
          "type": "address"
        }
      ],
      "stateMutability": "view",
      "type": "function",
      "constant": true
    },
    {
      "inputs": [],
      "name": "secondsPerBlock",
      "outputs": [
        {
          "internalType": "uint256",
          "name": "",
          "type": "uint256"
        }
      ],
      "stateMutability": "view",
      "type": "function",
      "constant": true
    },
    {
      "inputs": [
        {
          "internalType": "address",
          "name": "operator",
          "type": "address"
        },
        {
          "internalType": "bool",
          "name": "approved",
          "type": "bool"
        }
      ],
      "name": "setApprovalForAll",
      "outputs": [],
      "stateMutability": "nonpayable",
      "type": "function"
    },
    {
      "inputs": [
        {
          "internalType": "address",
          "name": "_newCEO",
          "type": "address"
        }
      ],
      "name": "setCEO",
      "outputs": [],
      "stateMutability": "nonpayable",
      "type": "function"
    },
    {
      "inputs": [
        {
          "internalType": "address",
          "name": "_newCFO",
          "type": "address"
        }
      ],
      "name": "setCFO",
      "outputs": [],
      "stateMutability": "nonpayable",
      "type": "function"
    },
    {
      "inputs": [
        {
          "internalType": "address",
          "name": "_newCOO",
          "type": "address"
        }
      ],
      "name": "setCOO",
      "outputs": [],
      "stateMutability": "nonpayable",
      "type": "function"
    },
    {
      "inputs": [
        {
          "internalType": "uint256",
          "name": "",
          "type": "uint256"
        }
      ],
      "name": "sireAllowedToAddress",
      "outputs": [
        {
          "internalType": "address",
          "name": "",
          "type": "address"
        }
      ],
      "stateMutability": "view",
      "type": "function",
      "constant": true
    },
    {
      "inputs": [
        {
          "internalType": "bytes4",
          "name": "interfaceId",
          "type": "bytes4"
        }
      ],
      "name": "supportsInterface",
      "outputs": [
        {
          "internalType": "bool",
          "name": "",
          "type": "bool"
        }
      ],
      "stateMutability": "view",
      "type": "function",
      "constant": true
    },
    {
      "inputs": [],
      "name": "symbol",
      "outputs": [
        {
          "internalType": "string",
          "name": "",
          "type": "string"
        }
      ],
      "stateMutability": "view",
      "type": "function",
      "constant": true
    },
    {
      "inputs": [],
      "name": "tokenCounter",
      "outputs": [
        {
          "internalType": "uint256",
          "name": "",
          "type": "uint256"
        }
      ],
      "stateMutability": "view",
      "type": "function",
      "constant": true
    },
    {
      "inputs": [
        {
          "internalType": "uint256",
          "name": "tokenId",
          "type": "uint256"
        }
      ],
      "name": "tokenURI",
      "outputs": [
        {
          "internalType": "string",
          "name": "",
          "type": "string"
        }
      ],
      "stateMutability": "view",
      "type": "function",
      "constant": true
    },
    {
      "inputs": [
        {
          "internalType": "address",
          "name": "from",
          "type": "address"
        },
        {
          "internalType": "address",
          "name": "to",
          "type": "address"
        },
        {
          "internalType": "uint256",
          "name": "tokenId",
          "type": "uint256"
        }
      ],
      "name": "transferFrom",
      "outputs": [],
      "stateMutability": "nonpayable",
      "type": "function"
    },
    {
      "inputs": [],
      "name": "unpause",
      "outputs": [],
      "stateMutability": "nonpayable",
      "type": "function"
    },
    {
      "stateMutability": "payable",
      "type": "receive",
      "payable": true
    },
    {
      "inputs": [],
      "name": "buyAnimal",
      "outputs": [
        {
          "internalType": "uint256",
          "name": "",
          "type": "uint256"
        }
      ],
      "stateMutability": "payable",
      "type": "function",
      "payable": true
    },
    {
      "inputs": [
        {
          "internalType": "uint256",
          "name": "matronId",
          "type": "uint256"
        },
        {
          "internalType": "uint256",
          "name": "sireId",
          "type": "uint256"
        }
      ],
      "name": "breedAnimals",
      "outputs": [
        {
          "internalType": "uint256",
          "name": "",
          "type": "uint256"
        }
      ],
      "stateMutability": "payable",
      "type": "function",
      "payable": true
    },
    {
      "inputs": [
        {
          "internalType": "uint256",
          "name": "animalId",
          "type": "uint256"
        }
      ],
      "name": "getAnimalDetails",
      "outputs": [
        {
          "internalType": "uint256",
          "name": "",
          "type": "uint256"
        },
        {
          "internalType": "uint8",
          "name": "",
          "type": "uint8"
        },
        {
          "internalType": "uint256",
          "name": "",
          "type": "uint256"
        },
        {
          "internalType": "uint256",
          "name": "",
          "type": "uint256"
        },
        {
          "internalType": "enum Species",
          "name": "",
          "type": "uint8"
        }
      ],
      "stateMutability": "view",
      "type": "function",
      "constant": true
    },
    {
      "inputs": [],
      "name": "ownedAnimals",
      "outputs": [
        {
          "internalType": "uint256[]",
          "name": "",
          "type": "uint256[]"
        }
      ],
      "stateMutability": "view",
      "type": "function",
      "constant": true
    }
  ],
  "bytecode": "0x60806040526000600860146101000a81548160ff0219169083151502179055506040518060a0016040528061384063ffffffff1663ffffffff1681526020016201518063ffffffff1663ffffffff1681526020016203f48063ffffffff1663ffffffff16815260200162093a8063ffffffff1663ffffffff16815260200162278d0063ffffffff1663ffffffff168152506009906005620000a292919062000164565b50600f600b55348015620000b557600080fd5b506040518060400160405280600981526020017f43727970746f5a6f6f00000000000000000000000000000000000000000000008152506040518060400160405280600381526020017f5a4f4f000000000000000000000000000000000000000000000000000000000081525081600090805190602001906200013a9291906200020e565b508060019080519060200190620001539291906200020e565b505050600160128190555062000323565b82600e600701600890048101928215620001fb5791602002820160005b83821115620001c757835183826101000a81548163ffffffff021916908363ffffffff160217905550926020019260040160208160030104928301926001030262000181565b8015620001f95782816101000a81549063ffffffff0219169055600401602081600301049283019260010302620001c7565b505b5090506200020a91906200029f565b5090565b8280546200021c90620002be565b90600052602060002090601f0160209004810192826200024057600085556200028c565b82601f106200025b57805160ff19168380011785556200028c565b828001600101855582156200028c579182015b828111156200028b5782518255916020019190600101906200026e565b5b5090506200029b91906200029f565b5090565b5b80821115620002ba576000816000905550600101620002a0565b5090565b60006002820490506001821680620002d757607f821691505b60208210811415620002ee57620002ed620002f4565b5b50919050565b7f4e487b7100000000000000000000000000000000000000000000000000000000600052602260045260246000fd5b613eac80620003336000396000f3fe6080604052600436106101fd5760003560e01c80638456cb591161010d578063b2c07292116100a0578063c87b56dd1161006f578063c87b56dd1461075c578063d082e38114610799578063d75e1970146107c4578063e6cbe351146107f4578063e985e9c51461081f57610204565b8063b2c072921461068a578063b4234ba5146106c7578063b88d4fde146106f2578063c73de8a31461071b57610204565b80639ba93308116100dc5780639ba93308146105db5780639d6fac6f146105f9578063a22cb46514610636578063b047fb501461065f57610204565b80638456cb591461051b57806395d89b411461053257806398cf8ae61461055d578063998dd3ca1461059a57610204565b80632ba73c15116101905780634e0a33791161015f5780634e0a3379146104225780635c975abb1461044b5780636352211e1461047657806370a08231146104b35780637a7d4937146104f057610204565b80632ba73c151461037c5780633f4ba83a146103a557806342842e0e146103bc57806346116e6f146103e557610204565b8063095ea7b3116101cc578063095ea7b3146102d65780630a0f8168146102ff57806323b872dd1461032a57806327d7874c1461035357610204565b806301ffc9a7146102065780630519ce791461024357806306fdde031461026e578063081812fc1461029957610204565b3661020457005b005b34801561021257600080fd5b5061022d60048036038101906102289190612cfa565b61085c565b60405161023a9190613248565b60405180910390f35b34801561024f57600080fd5b5061025861093e565b6040516102659190613150565b60405180910390f35b34801561027a57600080fd5b50610283610964565b604051610290919061327e565b60405180910390f35b3480156102a557600080fd5b506102c060048036038101906102bb9190612d4c565b6109f6565b6040516102cd9190613150565b60405180910390f35b3480156102e257600080fd5b506102fd60048036038101906102f89190612cbe565b610a7b565b005b34801561030b57600080fd5b50610314610b93565b6040516103219190613150565b60405180910390f35b34801561033657600080fd5b50610351600480360381019061034c9190612bb8565b610bb9565b005b34801561035f57600080fd5b5061037a60048036038101906103759190612b53565b610c19565b005b34801561038857600080fd5b506103a3600480360381019061039e9190612b53565b610cf1565b005b3480156103b157600080fd5b506103ba610dc9565b005b3480156103c857600080fd5b506103e360048036038101906103de9190612bb8565b610e59565b005b3480156103f157600080fd5b5061040c60048036038101906104079190612d4c565b610e79565b6040516104199190613150565b60405180910390f35b34801561042e57600080fd5b5061044960048036038101906104449190612b53565b610eac565b005b34801561045757600080fd5b50610460610f84565b60405161046d9190613248565b60405180910390f35b34801561048257600080fd5b5061049d60048036038101906104989190612d4c565b610f97565b6040516104aa9190613150565b60405180910390f35b3480156104bf57600080fd5b506104da60048036038101906104d59190612b53565b611049565b6040516104e79190613460565b60405180910390f35b3480156104fc57600080fd5b50610505611101565b6040516105129190613460565b60405180910390f35b34801561052757600080fd5b50610530611107565b005b34801561053e57600080fd5b50610547611248565b604051610554919061327e565b60405180910390f35b34801561056957600080fd5b50610584600480360381019061057f9190612d4c565b6112da565b6040516105919190613150565b60405180910390f35b3480156105a657600080fd5b506105c160048036038101906105bc9190612d4c565b61130d565b6040516105d29594939291906134e9565b60405180910390f35b6105e361137a565b6040516105f09190613460565b60405180910390f35b34801561060557600080fd5b50610620600480360381019061061b9190612d4c565b6113a1565b60405161062d91906134ce565b60405180910390f35b34801561064257600080fd5b5061065d60048036038101906106589190612c82565b6113d1565b005b34801561066b57600080fd5b50610674611552565b6040516106819190613150565b60405180910390f35b34801561069657600080fd5b506106b160048036038101906106ac9190612d4c565b611578565b6040516106be9190613150565b60405180910390f35b3480156106d357600080fd5b506106dc6115ab565b6040516106e99190613226565b60405180910390f35b3480156106fe57600080fd5b5061071960048036038101906107149190612c07565b611776565b005b34801561072757600080fd5b50610742600480360381019061073d9190612d4c565b6117d8565b60405161075395949392919061347b565b60405180910390f35b34801561076857600080fd5b50610783600480360381019061077e9190612d4c565b61186e565b604051610790919061327e565b60405180910390f35b3480156107a557600080fd5b506107ae611915565b6040516107bb9190613460565b60405180910390f35b6107de60048036038101906107d99190612d75565b61191b565b6040516107eb9190613460565b60405180910390f35b34801561080057600080fd5b50610809611a7f565b6040516108169190613263565b60405180910390f35b34801561082b57600080fd5b5061084660048036038101906108419190612b7c565b611aa5565b6040516108539190613248565b60405180910390f35b60007f80ac58cd000000000000000000000000000000000000000000000000000000007bffffffffffffffffffffffffffffffffffffffffffffffffffffffff1916827bffffffffffffffffffffffffffffffffffffffffffffffffffffffff1916148061092757507f5b5e139f000000000000000000000000000000000000000000000000000000007bffffffffffffffffffffffffffffffffffffffffffffffffffffffff1916827bffffffffffffffffffffffffffffffffffffffffffffffffffffffff1916145b80610937575061093682611b39565b5b9050919050565b600760009054906101000a900473ffffffffffffffffffffffffffffffffffffffff1681565b6060600080546109739061381c565b80601f016020809104026020016040519081016040528092919081815260200182805461099f9061381c565b80156109ec5780601f106109c1576101008083540402835291602001916109ec565b820191906000526020600020905b8154815290600101906020018083116109cf57829003601f168201915b5050505050905090565b6000610a0182611ba3565b610a40576040517f08c379a0000000000000000000000000000000000000000000000000000000008152600401610a37906133c0565b60405180910390fd5b6004600083815260200190815260200160002060009054906101000a900473ffffffffffffffffffffffffffffffffffffffff169050919050565b6000610a8682610f97565b90508073ffffffffffffffffffffffffffffffffffffffff168373ffffffffffffffffffffffffffffffffffffffff161415610af7576040517f08c379a0000000000000000000000000000000000000000000000000000000008152600401610aee90613420565b60405180910390fd5b8073ffffffffffffffffffffffffffffffffffffffff16610b16611c0f565b73ffffffffffffffffffffffffffffffffffffffff161480610b455750610b4481610b3f611c0f565b611aa5565b5b610b84576040517f08c379a0000000000000000000000000000000000000000000000000000000008152600401610b7b90613340565b60405180910390fd5b610b8e8383611c17565b505050565b600660009054906101000a900473ffffffffffffffffffffffffffffffffffffffff1681565b610bca610bc4611c0f565b82611cd0565b610c09576040517f08c379a0000000000000000000000000000000000000000000000000000000008152600401610c0090613440565b60405180910390fd5b610c14838383611dae565b505050565b600660009054906101000a900473ffffffffffffffffffffffffffffffffffffffff1673ffffffffffffffffffffffffffffffffffffffff163373ffffffffffffffffffffffffffffffffffffffff1614610c7357600080fd5b600073ffffffffffffffffffffffffffffffffffffffff168173ffffffffffffffffffffffffffffffffffffffff161415610cad57600080fd5b80600660006101000a81548173ffffffffffffffffffffffffffffffffffffffff021916908373ffffffffffffffffffffffffffffffffffffffff16021790555050565b600660009054906101000a900473ffffffffffffffffffffffffffffffffffffffff1673ffffffffffffffffffffffffffffffffffffffff163373ffffffffffffffffffffffffffffffffffffffff1614610d4b57600080fd5b600073ffffffffffffffffffffffffffffffffffffffff168173ffffffffffffffffffffffffffffffffffffffff161415610d8557600080fd5b80600860006101000a81548173ffffffffffffffffffffffffffffffffffffffff021916908373ffffffffffffffffffffffffffffffffffffffff16021790555050565b600660009054906101000a900473ffffffffffffffffffffffffffffffffffffffff1673ffffffffffffffffffffffffffffffffffffffff163373ffffffffffffffffffffffffffffffffffffffff1614610e2357600080fd5b600860149054906101000a900460ff16610e3c57600080fd5b6000600860146101000a81548160ff021916908315150217905550565b610e7483838360405180602001604052806000815250611776565b505050565b60106020528060005260406000206000915054906101000a900473ffffffffffffffffffffffffffffffffffffffff1681565b600660009054906101000a900473ffffffffffffffffffffffffffffffffffffffff1673ffffffffffffffffffffffffffffffffffffffff163373ffffffffffffffffffffffffffffffffffffffff1614610f0657600080fd5b600073ffffffffffffffffffffffffffffffffffffffff168173ffffffffffffffffffffffffffffffffffffffff161415610f4057600080fd5b80600760006101000a81548173ffffffffffffffffffffffffffffffffffffffff021916908373ffffffffffffffffffffffffffffffffffffffff16021790555050565b600860149054906101000a900460ff1681565b6000806002600084815260200190815260200160002060009054906101000a900473ffffffffffffffffffffffffffffffffffffffff169050600073ffffffffffffffffffffffffffffffffffffffff168173ffffffffffffffffffffffffffffffffffffffff161415611040576040517f08c379a000000000000000000000000000000000000000000000000000000000815260040161103790613380565b60405180910390fd5b80915050919050565b60008073ffffffffffffffffffffffffffffffffffffffff168273ffffffffffffffffffffffffffffffffffffffff1614156110ba576040517f08c379a00000000000000000000000000000000000000000000000000000000081526004016110b190613360565b60405180910390fd5b600360008373ffffffffffffffffffffffffffffffffffffffff1673ffffffffffffffffffffffffffffffffffffffff168152602001908152602001600020549050919050565b600b5481565b600860009054906101000a900473ffffffffffffffffffffffffffffffffffffffff1673ffffffffffffffffffffffffffffffffffffffff163373ffffffffffffffffffffffffffffffffffffffff1614806111b05750600660009054906101000a900473ffffffffffffffffffffffffffffffffffffffff1673ffffffffffffffffffffffffffffffffffffffff163373ffffffffffffffffffffffffffffffffffffffff16145b806112085750600760009054906101000a900473ffffffffffffffffffffffffffffffffffffffff1673ffffffffffffffffffffffffffffffffffffffff163373ffffffffffffffffffffffffffffffffffffffff16145b61121157600080fd5b600860149054906101000a900460ff161561122b57600080fd5b6001600860146101000a81548160ff021916908315150217905550565b6060600180546112579061381c565b80601f01602080910402602001604051908101604052809291908181526020018280546112839061381c565b80156112d05780601f106112a5576101008083540402835291602001916112d0565b820191906000526020600020905b8154815290600101906020018083116112b357829003601f168201915b5050505050905090565b600d6020528060005260406000206000915054906101000a900473ffffffffffffffffffffffffffffffffffffffff1681565b600c818154811061131d57600080fd5b90600052602060002090600402016000915090508060000160009054906101000a900460ff16908060010154908060020154908060030160009054906101000a900460ff16908060030160019054906101000a900460ff16905085565b600067016345785d8a0000341461139057600080fd5b61139c6000803361200a565b905090565b600981600e81106113b157600080fd5b60089182820401919006600402915054906101000a900463ffffffff1681565b6113d9611c0f565b73ffffffffffffffffffffffffffffffffffffffff168273ffffffffffffffffffffffffffffffffffffffff161415611447576040517f08c379a000000000000000000000000000000000000000000000000000000000815260040161143e90613300565b60405180910390fd5b8060056000611454611c0f565b73ffffffffffffffffffffffffffffffffffffffff1673ffffffffffffffffffffffffffffffffffffffff16815260200190815260200160002060008473ffffffffffffffffffffffffffffffffffffffff1673ffffffffffffffffffffffffffffffffffffffff16815260200190815260200160002060006101000a81548160ff0219169083151502179055508173ffffffffffffffffffffffffffffffffffffffff16611501611c0f565b73ffffffffffffffffffffffffffffffffffffffff167f17307eab39ab6107e8899845ad3d59bd9653f200f220920489ca2b5937696c31836040516115469190613248565b60405180910390a35050565b600860009054906101000a900473ffffffffffffffffffffffffffffffffffffffff1681565b600f6020528060005260406000206000915054906101000a900473ffffffffffffffffffffffffffffffffffffffff1681565b606060006115b833611049565b9050600081141561163b57600067ffffffffffffffff811115611604577f4e487b7100000000000000000000000000000000000000000000000000000000600052604160045260246000fd5b6040519080825280602002602001820160405280156116325781602001602082028036833780820191505090505b50915050611773565b60008167ffffffffffffffff81111561167d577f4e487b7100000000000000000000000000000000000000000000000000000000600052604160045260246000fd5b6040519080825280602002602001820160405280156116ab5781602001602082028036833780820191505090505b5090506000600c8054905090506000805b8281101561176a573373ffffffffffffffffffffffffffffffffffffffff166116e482610f97565b73ffffffffffffffffffffffffffffffffffffffff161415611756578084838151811061173a577f4e487b7100000000000000000000000000000000000000000000000000000000600052603260045260246000fd5b602002602001018181525050600182611753919061360e565b91505b600181611763919061360e565b90506116bc565b83955050505050505b90565b611787611781611c0f565b83611cd0565b6117c6576040517f08c379a00000000000000000000000000000000000000000000000000000000081526004016117bd90613440565b60405180910390fd5b6117d284848484612498565b50505050565b600080600080600080600c878154811061181b577f4e487b7100000000000000000000000000000000000000000000000000000000600052603260045260246000fd5b90600052602060002090600402019050868160000160009054906101000a900460ff16826001015483600201548460030160009054906101000a900460ff16955095509550955095505091939590929450565b606061187982611ba3565b6118b8576040517f08c379a00000000000000000000000000000000000000000000000000000000081526004016118af90613400565b60405180910390fd5b60006118c26124f4565b905060008151116118e2576040518060200160405280600081525061190d565b806118ec8461250b565b6040516020016118fd92919061312c565b6040516020818303038152906040525b915050919050565b60125481565b600066b1a2bc2ec50000341461193057600080fd5b6000601081111561196a577f4e487b7100000000000000000000000000000000000000000000000000000000600052602160045260246000fd5b6013600085815260200190815260200160002060009054906101000a900460ff1660108111156119c3577f4e487b7100000000000000000000000000000000000000000000000000000000600052602160045260246000fd5b14156119ce57600080fd5b60006010811115611a08577f4e487b7100000000000000000000000000000000000000000000000000000000600052602160045260246000fd5b6013600084815260200190815260200160002060009054906101000a900460ff166010811115611a61577f4e487b7100000000000000000000000000000000000000000000000000000000600052602160045260246000fd5b1415611a6c57600080fd5b611a7783833361200a565b905092915050565b601160009054906101000a900473ffffffffffffffffffffffffffffffffffffffff1681565b6000600560008473ffffffffffffffffffffffffffffffffffffffff1673ffffffffffffffffffffffffffffffffffffffff16815260200190815260200160002060008373ffffffffffffffffffffffffffffffffffffffff1673ffffffffffffffffffffffffffffffffffffffff16815260200190815260200160002060009054906101000a900460ff16905092915050565b60007f01ffc9a7000000000000000000000000000000000000000000000000000000007bffffffffffffffffffffffffffffffffffffffffffffffffffffffff1916827bffffffffffffffffffffffffffffffffffffffffffffffffffffffff1916149050919050565b60008073ffffffffffffffffffffffffffffffffffffffff166002600084815260200190815260200160002060009054906101000a900473ffffffffffffffffffffffffffffffffffffffff1673ffffffffffffffffffffffffffffffffffffffff1614159050919050565b600033905090565b816004600083815260200190815260200160002060006101000a81548173ffffffffffffffffffffffffffffffffffffffff021916908373ffffffffffffffffffffffffffffffffffffffff160217905550808273ffffffffffffffffffffffffffffffffffffffff16611c8a83610f97565b73ffffffffffffffffffffffffffffffffffffffff167f8c5be1e5ebec7d5bd14f71427d1e84f3dd0314c0f7b2291e5b200ac8c7c3b92560405160405180910390a45050565b6000611cdb82611ba3565b611d1a576040517f08c379a0000000000000000000000000000000000000000000000000000000008152600401611d1190613320565b60405180910390fd5b6000611d2583610f97565b90508073ffffffffffffffffffffffffffffffffffffffff168473ffffffffffffffffffffffffffffffffffffffff161480611d9457508373ffffffffffffffffffffffffffffffffffffffff16611d7c846109f6565b73ffffffffffffffffffffffffffffffffffffffff16145b80611da55750611da48185611aa5565b5b91505092915050565b8273ffffffffffffffffffffffffffffffffffffffff16611dce82610f97565b73ffffffffffffffffffffffffffffffffffffffff1614611e24576040517f08c379a0000000000000000000000000000000000000000000000000000000008152600401611e1b906133e0565b60405180910390fd5b600073ffffffffffffffffffffffffffffffffffffffff168273ffffffffffffffffffffffffffffffffffffffff161415611e94576040517f08c379a0000000000000000000000000000000000000000000000000000000008152600401611e8b906132e0565b60405180910390fd5b611e9f8383836126b8565b611eaa600082611c17565b6001600360008573ffffffffffffffffffffffffffffffffffffffff1673ffffffffffffffffffffffffffffffffffffffff1681526020019081526020016000206000828254611efa91906136cc565b925050819055506001600360008473ffffffffffffffffffffffffffffffffffffffff1673ffffffffffffffffffffffffffffffffffffffff1681526020019081526020016000206000828254611f51919061360e565b92505081905550816002600083815260200190815260200160002060006101000a81548173ffffffffffffffffffffffffffffffffffffffff021916908373ffffffffffffffffffffffffffffffffffffffff160217905550808273ffffffffffffffffffffffffffffffffffffffff168473ffffffffffffffffffffffffffffffffffffffff167fddf252ad1be2c89b69c2b068fc378daa952ba7f163c4a11628f55a4df523b3ef60405160405180910390a4505050565b60008073ffffffffffffffffffffffffffffffffffffffff168273ffffffffffffffffffffffffffffffffffffffff16141561204557600080fd5b60008084861480156120575750600086145b156120ed576001601080811115612097577f4e487b7100000000000000000000000000000000000000000000000000000000600052602160045260246000fd5b6012546120a491906138c8565b6120ae919061360e565b60108111156120e6577f4e487b7100000000000000000000000000000000000000000000000000000000600052602160045260246000fd5b915061222e565b60006013600088815260200190815260200160002060009054906101000a900460ff16905060006013600088815260200190815260200160002060009054906101000a900460ff169050816010811115612170577f4e487b7100000000000000000000000000000000000000000000000000000000600052602160045260246000fd5b8160108111156121a9577f4e487b7100000000000000000000000000000000000000000000000000000000600052602160045260246000fd5b14156121d3576013600089815260200190815260200160002060009054906101000a900460ff1693505b600161221f601460008b815260200190815260200160002060009054906101000a900460ff16601460008b815260200190815260200160002060009054906101000a900460ff166126bd565b6122299190613664565b925050505b600061223a87876126dc565b90506000601254905060006040518060a001604052808460ff1681526020018a815260200189815260200186601081111561229e577f4e487b7100000000000000000000000000000000000000000000000000000000600052602160045260246000fd5b81526020018560ff168152509050600c81908060018154018082558091505060019003906000526020600020906004020160009091909190915060008201518160000160006101000a81548160ff021916908360ff160217905550602082015181600101556040820151816002015560608201518160030160006101000a81548160ff0219169083601081111561235e577f4e487b7100000000000000000000000000000000000000000000000000000000600052602160045260246000fd5b021790555060808201518160030160016101000a81548160ff021916908360ff1602179055505050836014600084815260200190815260200160002060006101000a81548160ff021916908360ff160217905550846013600084815260200190815260200160002060006101000a81548160ff0219169083601081111561240e577f4e487b7100000000000000000000000000000000000000000000000000000000600052602160045260246000fd5b02179055506001601254612422919061360e565b601281905550612432878361270a565b7f013a12321b380fb1c317fc2e590013ca3d7c7a3e57a5533b3b6605070d7fe7ed87838360200151846040015185606001518660000151876080015160405161248197969594939291906131b7565b60405180910390a181955050505050509392505050565b6124a3848484611dae565b6124af848484846128d8565b6124ee576040517f08c379a00000000000000000000000000000000000000000000000000000000081526004016124e5906132a0565b60405180910390fd5b50505050565b606060405180602001604052806000815250905090565b60606000821415612553576040518060400160405280600181526020017f300000000000000000000000000000000000000000000000000000000000000081525090506126b3565b600082905060005b6000821461258557808061256e9061387f565b915050600a8261257e919061369b565b915061255b565b60008167ffffffffffffffff8111156125c7577f4e487b7100000000000000000000000000000000000000000000000000000000600052604160045260246000fd5b6040519080825280601f01601f1916602001820160405280156125f95781602001600182028036833780820191505090505b5090505b600085146126ac5760018261261291906136cc565b9150600a8561262191906138c8565b603061262d919061360e565b60f81b818381518110612669577f4e487b7100000000000000000000000000000000000000000000000000000000600052603260045260246000fd5b60200101907effffffffffffffffffffffffffffffffffffffffffffffffffffffffffffff1916908160001a905350600a856126a5919061369b565b94506125fd565b8093505050505b919050565b505050565b60008160ff168360ff16116126d257816126d4565b825b905092915050565b60006001600683856126ee919061360e565b6126f891906138f9565b6127029190613664565b905092915050565b600073ffffffffffffffffffffffffffffffffffffffff168273ffffffffffffffffffffffffffffffffffffffff16141561277a576040517f08c379a0000000000000000000000000000000000000000000000000000000008152600401612771906133a0565b60405180910390fd5b61278381611ba3565b156127c3576040517f08c379a00000000000000000000000000000000000000000000000000000000081526004016127ba906132c0565b60405180910390fd5b6127cf600083836126b8565b6001600360008473ffffffffffffffffffffffffffffffffffffffff1673ffffffffffffffffffffffffffffffffffffffff168152602001908152602001600020600082825461281f919061360e565b92505081905550816002600083815260200190815260200160002060006101000a81548173ffffffffffffffffffffffffffffffffffffffff021916908373ffffffffffffffffffffffffffffffffffffffff160217905550808273ffffffffffffffffffffffffffffffffffffffff16600073ffffffffffffffffffffffffffffffffffffffff167fddf252ad1be2c89b69c2b068fc378daa952ba7f163c4a11628f55a4df523b3ef60405160405180910390a45050565b60006128f98473ffffffffffffffffffffffffffffffffffffffff16612a6f565b15612a62578373ffffffffffffffffffffffffffffffffffffffff1663150b7a02612922611c0f565b8786866040518563ffffffff1660e01b8152600401612944949392919061316b565b602060405180830381600087803b15801561295e57600080fd5b505af192505050801561298f57506040513d601f19601f8201168201806040525081019061298c9190612d23565b60015b612a12573d80600081146129bf576040519150601f19603f3d011682016040523d82523d6000602084013e6129c4565b606091505b50600081511415612a0a576040517f08c379a0000000000000000000000000000000000000000000000000000000008152600401612a01906132a0565b60405180910390fd5b805181602001fd5b63150b7a0260e01b7bffffffffffffffffffffffffffffffffffffffffffffffffffffffff1916817bffffffffffffffffffffffffffffffffffffffffffffffffffffffff191614915050612a67565b600190505b949350505050565b600080823b905060008111915050919050565b6000612a95612a9084613561565b61353c565b905082815260208101848484011115612aad57600080fd5b612ab88482856137da565b509392505050565b600081359050612acf81613e1a565b92915050565b600081359050612ae481613e31565b92915050565b600081359050612af981613e48565b92915050565b600081519050612b0e81613e48565b92915050565b600082601f830112612b2557600080fd5b8135612b35848260208601612a82565b91505092915050565b600081359050612b4d81613e5f565b92915050565b600060208284031215612b6557600080fd5b6000612b7384828501612ac0565b91505092915050565b60008060408385031215612b8f57600080fd5b6000612b9d85828601612ac0565b9250506020612bae85828601612ac0565b9150509250929050565b600080600060608486031215612bcd57600080fd5b6000612bdb86828701612ac0565b9350506020612bec86828701612ac0565b9250506040612bfd86828701612b3e565b9150509250925092565b60008060008060808587031215612c1d57600080fd5b6000612c2b87828801612ac0565b9450506020612c3c87828801612ac0565b9350506040612c4d87828801612b3e565b925050606085013567ffffffffffffffff811115612c6a57600080fd5b612c7687828801612b14565b91505092959194509250565b60008060408385031215612c9557600080fd5b6000612ca385828601612ac0565b9250506020612cb485828601612ad5565b9150509250929050565b60008060408385031215612cd157600080fd5b6000612cdf85828601612ac0565b9250506020612cf085828601612b3e565b9150509250929050565b600060208284031215612d0c57600080fd5b6000612d1a84828501612aea565b91505092915050565b600060208284031215612d3557600080fd5b6000612d4384828501612aff565b91505092915050565b600060208284031215612d5e57600080fd5b6000612d6c84828501612b3e565b91505092915050565b60008060408385031215612d8857600080fd5b6000612d9685828601612b3e565b9250506020612da785828601612b3e565b9150509250929050565b6000612dbd83836130f0565b60208301905092915050565b612dd281613700565b82525050565b6000612de3826135a2565b612ded81856135d0565b9350612df883613592565b8060005b83811015612e29578151612e108882612db1565b9750612e1b836135c3565b925050600181019050612dfc565b5085935050505092915050565b612e3f81613712565b82525050565b6000612e50826135ad565b612e5a81856135e1565b9350612e6a8185602086016137e9565b612e7381613a15565b840191505092915050565b612e87816137a4565b82525050565b612e96816137c8565b82525050565b6000612ea7826135b8565b612eb181856135f2565b9350612ec18185602086016137e9565b612eca81613a15565b840191505092915050565b6000612ee0826135b8565b612eea8185613603565b9350612efa8185602086016137e9565b80840191505092915050565b6000612f136032836135f2565b9150612f1e82613a26565b604082019050919050565b6000612f36601c836135f2565b9150612f4182613a75565b602082019050919050565b6000612f596024836135f2565b9150612f6482613a9e565b604082019050919050565b6000612f7c6019836135f2565b9150612f8782613aed565b602082019050919050565b6000612f9f602c836135f2565b9150612faa82613b16565b604082019050919050565b6000612fc26038836135f2565b9150612fcd82613b65565b604082019050919050565b6000612fe5602a836135f2565b9150612ff082613bb4565b604082019050919050565b60006130086029836135f2565b915061301382613c03565b604082019050919050565b600061302b6020836135f2565b915061303682613c52565b602082019050919050565b600061304e602c836135f2565b915061305982613c7b565b604082019050919050565b60006130716029836135f2565b915061307c82613cca565b604082019050919050565b6000613094602f836135f2565b915061309f82613d19565b604082019050919050565b60006130b76021836135f2565b91506130c282613d68565b604082019050919050565b60006130da6031836135f2565b91506130e582613db7565b604082019050919050565b6130f98161377d565b82525050565b6131088161377d565b82525050565b61311781613787565b82525050565b61312681613797565b82525050565b60006131388285612ed5565b91506131448284612ed5565b91508190509392505050565b60006020820190506131656000830184612dc9565b92915050565b60006080820190506131806000830187612dc9565b61318d6020830186612dc9565b61319a60408301856130ff565b81810360608301526131ac8184612e45565b905095945050505050565b600060e0820190506131cc600083018a612dc9565b6131d960208301896130ff565b6131e660408301886130ff565b6131f360608301876130ff565b6132006080830186612e8d565b61320d60a083018561311d565b61321a60c083018461311d565b98975050505050505050565b600060208201905081810360008301526132408184612dd8565b905092915050565b600060208201905061325d6000830184612e36565b92915050565b60006020820190506132786000830184612e7e565b92915050565b600060208201905081810360008301526132988184612e9c565b905092915050565b600060208201905081810360008301526132b981612f06565b9050919050565b600060208201905081810360008301526132d981612f29565b9050919050565b600060208201905081810360008301526132f981612f4c565b9050919050565b6000602082019050818103600083015261331981612f6f565b9050919050565b6000602082019050818103600083015261333981612f92565b9050919050565b6000602082019050818103600083015261335981612fb5565b9050919050565b6000602082019050818103600083015261337981612fd8565b9050919050565b6000602082019050818103600083015261339981612ffb565b9050919050565b600060208201905081810360008301526133b98161301e565b9050919050565b600060208201905081810360008301526133d981613041565b9050919050565b600060208201905081810360008301526133f981613064565b9050919050565b6000602082019050818103600083015261341981613087565b9050919050565b60006020820190508181036000830152613439816130aa565b9050919050565b60006020820190508181036000830152613459816130cd565b9050919050565b600060208201905061347560008301846130ff565b92915050565b600060a08201905061349060008301886130ff565b61349d602083018761311d565b6134aa60408301866130ff565b6134b760608301856130ff565b6134c46080830184612e8d565b9695505050505050565b60006020820190506134e3600083018461310e565b92915050565b600060a0820190506134fe600083018861311d565b61350b60208301876130ff565b61351860408301866130ff565b6135256060830185612e8d565b613532608083018461311d565b9695505050505050565b6000613546613557565b9050613552828261384e565b919050565b6000604051905090565b600067ffffffffffffffff82111561357c5761357b6139e6565b5b61358582613a15565b9050602081019050919050565b6000819050602082019050919050565b600081519050919050565b600081519050919050565b600081519050919050565b6000602082019050919050565b600082825260208201905092915050565b600082825260208201905092915050565b600082825260208201905092915050565b600081905092915050565b60006136198261377d565b91506136248361377d565b9250827fffffffffffffffffffffffffffffffffffffffffffffffffffffffffffffffff038211156136595761365861392a565b5b828201905092915050565b600061366f82613797565b915061367a83613797565b92508260ff038211156136905761368f61392a565b5b828201905092915050565b60006136a68261377d565b91506136b18361377d565b9250826136c1576136c0613959565b5b828204905092915050565b60006136d78261377d565b91506136e28361377d565b9250828210156136f5576136f461392a565b5b828203905092915050565b600061370b8261375d565b9050919050565b60008115159050919050565b60007fffffffff0000000000000000000000000000000000000000000000000000000082169050919050565b600081905061375882613e06565b919050565b600073ffffffffffffffffffffffffffffffffffffffff82169050919050565b6000819050919050565b600063ffffffff82169050919050565b600060ff82169050919050565b60006137af826137b6565b9050919050565b60006137c18261375d565b9050919050565b60006137d38261374a565b9050919050565b82818337600083830152505050565b60005b838110156138075780820151818401526020810190506137ec565b83811115613816576000848401525b50505050565b6000600282049050600182168061383457607f821691505b60208210811415613848576138476139b7565b5b50919050565b61385782613a15565b810181811067ffffffffffffffff82111715613876576138756139e6565b5b80604052505050565b600061388a8261377d565b91507fffffffffffffffffffffffffffffffffffffffffffffffffffffffffffffffff8214156138bd576138bc61392a565b5b600182019050919050565b60006138d38261377d565b91506138de8361377d565b9250826138ee576138ed613959565b5b828206905092915050565b600061390482613797565b915061390f83613797565b92508261391f5761391e613959565b5b828206905092915050565b7f4e487b7100000000000000000000000000000000000000000000000000000000600052601160045260246000fd5b7f4e487b7100000000000000000000000000000000000000000000000000000000600052601260045260246000fd5b7f4e487b7100000000000000000000000000000000000000000000000000000000600052602160045260246000fd5b7f4e487b7100000000000000000000000000000000000000000000000000000000600052602260045260246000fd5b7f4e487b7100000000000000000000000000000000000000000000000000000000600052604160045260246000fd5b6000601f19601f8301169050919050565b7f4552433732313a207472616e7366657220746f206e6f6e20455243373231526560008201527f63656976657220696d706c656d656e7465720000000000000000000000000000602082015250565b7f4552433732313a20746f6b656e20616c7265616479206d696e74656400000000600082015250565b7f4552433732313a207472616e7366657220746f20746865207a65726f2061646460008201527f7265737300000000000000000000000000000000000000000000000000000000602082015250565b7f4552433732313a20617070726f766520746f2063616c6c657200000000000000600082015250565b7f4552433732313a206f70657261746f7220717565727920666f72206e6f6e657860008201527f697374656e7420746f6b656e0000000000000000000000000000000000000000602082015250565b7f4552433732313a20617070726f76652063616c6c6572206973206e6f74206f7760008201527f6e6572206e6f7220617070726f76656420666f7220616c6c0000000000000000602082015250565b7f4552433732313a2062616c616e636520717565727920666f7220746865207a6560008201527f726f206164647265737300000000000000000000000000000000000000000000602082015250565b7f4552433732313a206f776e657220717565727920666f72206e6f6e657869737460008201527f656e7420746f6b656e0000000000000000000000000000000000000000000000602082015250565b7f4552433732313a206d696e7420746f20746865207a65726f2061646472657373600082015250565b7f4552433732313a20617070726f76656420717565727920666f72206e6f6e657860008201527f697374656e7420746f6b656e0000000000000000000000000000000000000000602082015250565b7f4552433732313a207472616e73666572206f6620746f6b656e2074686174206960008201527f73206e6f74206f776e0000000000000000000000000000000000000000000000602082015250565b7f4552433732314d657461646174613a2055524920717565727920666f72206e6f60008201527f6e6578697374656e7420746f6b656e0000000000000000000000000000000000602082015250565b7f4552433732313a20617070726f76616c20746f2063757272656e74206f776e6560008201527f7200000000000000000000000000000000000000000000000000000000000000602082015250565b7f4552433732313a207472616e736665722063616c6c6572206973206e6f74206f60008201527f776e6572206e6f7220617070726f766564000000000000000000000000000000602082015250565b60118110613e1757613e16613988565b5b50565b613e2381613700565b8114613e2e57600080fd5b50565b613e3a81613712565b8114613e4557600080fd5b50565b613e518161371e565b8114613e5c57600080fd5b50565b613e688161377d565b8114613e7357600080fd5b5056fea26469706673582212204db069e275fc3b9774b70bffe451d04182a152bd6ceb8b3b6b353f69939a17ed64736f6c63430008040033",
  "immutableReferences": {},
  "source": "// SPDX-License-Identifier: UNLICENSED\npragma solidity ^0.8.4;\n\nimport \"@openzeppelin/contracts/token/ERC721/ERC721.sol\";\nimport \"./animals.sol\";\nimport \"./AnimalBase.sol\";\n\ncontract CryptoZoo is ERC721, AnimalBase {\n  uint256 public tokenCounter;\n\n  \n  \n\n  mapping(uint256 => Species) tokenIdToSpecies;\n  mapping(uint256 => uint8) tokenIdToGeneration;\n\n  constructor() ERC721(\"CryptoZoo\", \"ZOO\") {\n    tokenCounter = 1;\n  }\n  \n  function max(uint8 a, uint8 b) private pure returns (uint8) {\n        return a > b ? a : b;\n  }\n\n  /** @dev Function to determine a animal's characteristics.\n      * @param matron ID of animal's matron (one parent)\n      * @param sire ID of animal's sire (other parent)\n      * @return The animal's genes in the form of uint8\n      */\n  function generateAnimalGenes(\n      uint256 matron,\n      uint256 sire\n  )\n      internal\n      pure\n      returns (uint8)\n  {\n      // some bogus math now to get genes based on id of parents.\n      return uint8(matron + sire) % 6 + 1;\n  }\n\n  /** @dev Function to create a new animal\n    * @param matron ID of new animal's matron (one parent)\n    * @param sire ID of new animal's sire (other parent)\n    * @param animalOwner Address of new animal's owner\n    * @return The new animal's ID\n    */\n  function createAnimal(\n      uint256 matron,\n      uint256 sire,\n      address animalOwner\n  )\n      internal\n      returns (uint)\n  {\n      // contract shouldn't own the animal. \n      require(animalOwner != address(0));\n      Species nextSpecies = Species.MUTANT;\n      uint8 nextGeneration = 0;\n      // if it is a new egg, then hatch the pure animal, in this case the \n      // matron and sire will be 0: \n      if (matron == sire && matron == 0){\n        // get the next available species\n        nextSpecies = Species((tokenCounter) % uint(Species.BEAR) + 1);\n      } else  {\n        Species matronSpecies = tokenIdToSpecies[matron];\n        Species sireSpecies = tokenIdToSpecies[sire];\n        if( sireSpecies == matronSpecies){\n          // next species is the same as the parents apes make apes. \n          nextSpecies = tokenIdToSpecies[matron]; \n        }\n        // generation is the latest of the parents. \n        nextGeneration = max(tokenIdToGeneration[matron], tokenIdToGeneration[sire]) + 1;\n      }\n\n      uint8 newGenes = generateAnimalGenes(matron, sire);\n      uint256 newAnimalId = tokenCounter;\n\n      Animal memory newAnimal = Animal({\n          genes: newGenes,\n          matronId: matron,\n          sireId: sire,\n          species: nextSpecies,\n          generation: nextGeneration\n      });\n\n      animals.push(newAnimal);\n      tokenIdToGeneration[newAnimalId] = nextGeneration;\n      tokenIdToSpecies[newAnimalId] = nextSpecies;\n      tokenCounter = tokenCounter + 1;\n\n      super._mint(animalOwner, newAnimalId);\n      emit Birth(\n          animalOwner,\n          newAnimalId,\n          newAnimal.matronId,\n          newAnimal.sireId,\n          newAnimal.species,\n          newAnimal.genes,\n          newAnimal.generation\n      );\n       return newAnimalId;\n  }\n\n  /** @dev Function to allow user to buy a new animal (calls createAnimal())\n    * @return The new animal's ID\n    */\n  function buyAnimal() external payable returns (uint256) {\n      require(msg.value == 0.1 ether);\n      return createAnimal(0, 0, msg.sender);\n  }\n    \n  /** @dev Function to breed 2 animals to create a new one\n    * @param matronId ID of new animal's matron (one parent)\n    * @param sireId ID of new animal's sire (other parent)\n    * @return The new animal's ID\n    */\n  function breedAnimals(uint256 matronId, uint256 sireId) external payable returns (uint256) {\n      // get matron and sire species and make sure they are not the same. \n      require(msg.value == 0.05 ether);\n\n      // mutants can't mate. \n      require(tokenIdToSpecies[matronId] != Species.MUTANT);\n      require(tokenIdToSpecies[sireId] != Species.MUTANT);\n\n      // create animal\n      return createAnimal(matronId, sireId, msg.sender);\n  }\n    \n  /** @dev Function to retrieve a specific animal's details.\n    * @param animalId ID of the animal who's details will be retrieved\n    * @return An array, [animal's ID, animal's genes, matron's ID, sire's ID]\n    */\n  function getAnimalDetails(uint256 animalId) external view returns (uint256, uint8, uint256, uint256, Species) {\n      Animal storage animal = animals[animalId];\n      return (animalId, animal.genes, animal.matronId, animal.sireId, animal.species);\n  }\n    \n  /** @dev Function to get a list of owned animals' IDs\n    * @return A uint array which contains IDs of all owned animals\n    */\n  function ownedAnimals() external view returns(uint256[] memory) {\n      uint256 animalCount = balanceOf(msg.sender);\n      if (animalCount == 0) {\n          return new uint256[](0);\n      } else {\n          uint256[] memory result = new uint256[](animalCount);\n          uint256 totalAnimals = animals.length;\n          uint256 resultIndex = 0;\n          uint256 animalId = 0;\n          while (animalId < totalAnimals) {\n              if (ownerOf(animalId) == msg.sender) {\n                  result[resultIndex] = animalId;\n                  resultIndex = resultIndex + 1;\n              }\n              animalId = animalId + 1;\n          }\n          return result;\n      }\n  }\n\n  fallback() external payable {\n    // TODO\n  }\n\n  receive() external payable {\n  }  \n\n}\n",
  "sourcePath": "E:/general_work/upwork/202105/CryptoZoo-NFT3-main/contracts/cryptozoo.sol",
  "compiler": {
    "name": "solc",
    "version": "0.8.4+commit.c7e474f2.Emscripten.clang"
  },
  "schemaVersion": "3.4.0",
  "updatedAt": "2021-05-06T03:12:45.565Z",
  "networkType": "ethereum",
  "devdoc": {
    "kind": "dev",
    "methods": {
      "approve(address,uint256)": {
        "details": "See {IERC721-approve}."
      },
      "balanceOf(address)": {
        "details": "See {IERC721-balanceOf}."
      },
      "breedAnimals(uint256,uint256)": {
        "details": "Function to breed 2 animals to create a new one",
        "params": {
          "matronId": "ID of new animal's matron (one parent)",
          "sireId": "ID of new animal's sire (other parent)"
        },
        "returns": {
          "_0": "The new animal's ID"
        }
      },
      "buyAnimal()": {
        "details": "Function to allow user to buy a new animal (calls createAnimal())",
        "returns": {
          "_0": "The new animal's ID"
        }
      },
      "getAnimalDetails(uint256)": {
        "details": "Function to retrieve a specific animal's details.",
        "params": {
          "animalId": "ID of the animal who's details will be retrieved"
        },
        "returns": {
          "_0": "An array, [animal's ID, animal's genes, matron's ID, sire's ID]"
        }
      },
      "getApproved(uint256)": {
        "details": "See {IERC721-getApproved}."
      },
      "isApprovedForAll(address,address)": {
        "details": "See {IERC721-isApprovedForAll}."
      },
      "name()": {
        "details": "See {IERC721Metadata-name}."
      },
      "ownedAnimals()": {
        "details": "Function to get a list of owned animals' IDs",
        "returns": {
          "_0": "A uint array which contains IDs of all owned animals"
        }
      },
      "ownerOf(uint256)": {
        "details": "See {IERC721-ownerOf}."
      },
      "pause()": {
        "details": "Called by any \"C-level\" role to pause the contract. Used only when  a bug or exploit is detected and we need to limit damage."
      },
      "safeTransferFrom(address,address,uint256)": {
        "details": "See {IERC721-safeTransferFrom}."
      },
      "safeTransferFrom(address,address,uint256,bytes)": {
        "details": "See {IERC721-safeTransferFrom}."
      },
      "setApprovalForAll(address,bool)": {
        "details": "See {IERC721-setApprovalForAll}."
      },
      "setCEO(address)": {
        "details": "Assigns a new address to act as the CEO. Only available to the current CEO.",
        "params": {
          "_newCEO": "The address of the new CEO"
        }
      },
      "setCFO(address)": {
        "details": "Assigns a new address to act as the CFO. Only available to the current CEO.",
        "params": {
          "_newCFO": "The address of the new CFO"
        }
      },
      "setCOO(address)": {
        "details": "Assigns a new address to act as the COO. Only available to the current CEO.",
        "params": {
          "_newCOO": "The address of the new COO"
        }
      },
      "supportsInterface(bytes4)": {
        "details": "See {IERC165-supportsInterface}."
      },
      "symbol()": {
        "details": "See {IERC721Metadata-symbol}."
      },
      "tokenURI(uint256)": {
        "details": "See {IERC721Metadata-tokenURI}."
      },
      "transferFrom(address,address,uint256)": {
        "details": "See {IERC721-transferFrom}."
      },
      "unpause()": {
        "details": "Unpauses the smart contract. Can only be called by the CEO, since  one reason we may pause the contract is when CFO or COO accounts are  compromised."
      }
    },
    "version": 1
  },
  "userdoc": {
    "kind": "user",
    "methods": {
      "unpause()": {
        "notice": "This is public rather than external so it can be called by  derived contracts."
      }
    },
    "version": 1
  }
}