{
  "contractName": "SaleClockAuction",
  "abi": [
    {
      "inputs": [
        {
          "internalType": "address",
          "name": "_nftAddr",
          "type": "address"
        },
        {
          "internalType": "uint256",
          "name": "_cut",
          "type": "uint256"
        }
      ],
      "stateMutability": "nonpayable",
      "type": "constructor"
    },
    {
      "anonymous": false,
      "inputs": [
        {
          "indexed": false,
          "internalType": "uint256",
          "name": "tokenId",
          "type": "uint256"
        }
      ],
      "name": "AuctionCancelled",
      "type": "event"
    },
    {
      "anonymous": false,
      "inputs": [
        {
          "indexed": false,
          "internalType": "uint256",
          "name": "tokenId",
          "type": "uint256"
        },
        {
          "indexed": false,
          "internalType": "uint256",
          "name": "startingPrice",
          "type": "uint256"
        },
        {
          "indexed": false,
          "internalType": "uint256",
          "name": "endingPrice",
          "type": "uint256"
        },
        {
          "indexed": false,
          "internalType": "uint256",
          "name": "duration",
          "type": "uint256"
        }
      ],
      "name": "AuctionCreated",
      "type": "event"
    },
    {
      "anonymous": false,
      "inputs": [
        {
          "indexed": false,
          "internalType": "uint256",
          "name": "tokenId",
          "type": "uint256"
        },
        {
          "indexed": false,
          "internalType": "uint256",
          "name": "totalPrice",
          "type": "uint256"
        },
        {
          "indexed": false,
          "internalType": "address",
          "name": "winner",
          "type": "address"
        }
      ],
      "name": "AuctionSuccessful",
      "type": "event"
    },
    {
      "anonymous": false,
      "inputs": [
        {
          "indexed": true,
          "internalType": "address",
          "name": "previousOwner",
          "type": "address"
        },
        {
          "indexed": true,
          "internalType": "address",
          "name": "newOwner",
          "type": "address"
        }
      ],
      "name": "OwnershipTransferred",
      "type": "event"
    },
    {
      "anonymous": false,
      "inputs": [
        {
          "indexed": false,
          "internalType": "address",
          "name": "account",
          "type": "address"
        }
      ],
      "name": "Paused",
      "type": "event"
    },
    {
      "anonymous": false,
      "inputs": [
        {
          "indexed": false,
          "internalType": "address",
          "name": "account",
          "type": "address"
        }
      ],
      "name": "Unpaused",
      "type": "event"
    },
    {
      "inputs": [
        {
          "internalType": "uint256",
          "name": "_tokenId",
          "type": "uint256"
        }
      ],
      "name": "cancelAuction",
      "outputs": [],
      "stateMutability": "nonpayable",
      "type": "function"
    },
    {
      "inputs": [
        {
          "internalType": "uint256",
          "name": "_tokenId",
          "type": "uint256"
        }
      ],
      "name": "cancelAuctionWhenPaused",
      "outputs": [],
      "stateMutability": "nonpayable",
      "type": "function"
    },
    {
      "inputs": [],
      "name": "gen0SaleCount",
      "outputs": [
        {
          "internalType": "uint256",
          "name": "",
          "type": "uint256"
        }
      ],
      "stateMutability": "view",
      "type": "function"
    },
    {
      "inputs": [
        {
          "internalType": "uint256",
          "name": "_tokenId",
          "type": "uint256"
        }
      ],
      "name": "getAuction",
      "outputs": [
        {
          "internalType": "address",
          "name": "seller",
          "type": "address"
        },
        {
          "internalType": "uint256",
          "name": "startingPrice",
          "type": "uint256"
        },
        {
          "internalType": "uint256",
          "name": "endingPrice",
          "type": "uint256"
        },
        {
          "internalType": "uint256",
          "name": "duration",
          "type": "uint256"
        },
        {
          "internalType": "uint256",
          "name": "startedAt",
          "type": "uint256"
        }
      ],
      "stateMutability": "view",
      "type": "function"
    },
    {
      "inputs": [
        {
          "internalType": "uint256",
          "name": "_tokenId",
          "type": "uint256"
        }
      ],
      "name": "getCurrentPrice",
      "outputs": [
        {
          "internalType": "uint256",
          "name": "",
          "type": "uint256"
        }
      ],
      "stateMutability": "view",
      "type": "function"
    },
    {
      "inputs": [],
      "name": "isSaleClockAuction",
      "outputs": [
        {
          "internalType": "bool",
          "name": "",
          "type": "bool"
        }
      ],
      "stateMutability": "view",
      "type": "function"
    },
    {
      "inputs": [
        {
          "internalType": "uint256",
          "name": "",
          "type": "uint256"
        }
      ],
      "name": "lastGen0SalePrices",
      "outputs": [
        {
          "internalType": "uint256",
          "name": "",
          "type": "uint256"
        }
      ],
      "stateMutability": "view",
      "type": "function"
    },
    {
      "inputs": [],
      "name": "nonFungibleContract",
      "outputs": [
        {
          "internalType": "contract ERC721",
          "name": "",
          "type": "address"
        }
      ],
      "stateMutability": "view",
      "type": "function"
    },
    {
      "inputs": [],
      "name": "owner",
      "outputs": [
        {
          "internalType": "address",
          "name": "",
          "type": "address"
        }
      ],
      "stateMutability": "view",
      "type": "function"
    },
    {
      "inputs": [],
      "name": "ownerCut",
      "outputs": [
        {
          "internalType": "uint256",
          "name": "",
          "type": "uint256"
        }
      ],
      "stateMutability": "view",
      "type": "function"
    },
    {
      "inputs": [],
      "name": "owner_address",
      "outputs": [
        {
          "internalType": "address",
          "name": "",
          "type": "address"
        }
      ],
      "stateMutability": "view",
      "type": "function"
    },
    {
      "inputs": [],
      "name": "paused",
      "outputs": [
        {
          "internalType": "bool",
          "name": "",
          "type": "bool"
        }
      ],
      "stateMutability": "view",
      "type": "function"
    },
    {
      "inputs": [],
      "name": "renounceOwnership",
      "outputs": [],
      "stateMutability": "nonpayable",
      "type": "function"
    },
    {
      "inputs": [
        {
          "internalType": "address",
          "name": "newOwner",
          "type": "address"
        }
      ],
      "name": "transferOwnership",
      "outputs": [],
      "stateMutability": "nonpayable",
      "type": "function"
    },
    {
      "inputs": [],
      "name": "withdrawBalance",
      "outputs": [],
      "stateMutability": "nonpayable",
      "type": "function"
    },
    {
      "inputs": [
        {
          "internalType": "uint256",
          "name": "_tokenId",
          "type": "uint256"
        },
        {
          "internalType": "uint256",
          "name": "_startingPrice",
          "type": "uint256"
        },
        {
          "internalType": "uint256",
          "name": "_endingPrice",
          "type": "uint256"
        },
        {
          "internalType": "uint256",
          "name": "_duration",
          "type": "uint256"
        },
        {
          "internalType": "address",
          "name": "_seller",
          "type": "address"
        }
      ],
      "name": "createAuction",
      "outputs": [],
      "stateMutability": "nonpayable",
      "type": "function"
    },
    {
      "inputs": [
        {
          "internalType": "uint256",
          "name": "_tokenId",
          "type": "uint256"
        }
      ],
      "name": "bid",
      "outputs": [],
      "stateMutability": "payable",
      "type": "function"
    },
    {
      "inputs": [],
      "name": "averageGen0SalePrice",
      "outputs": [
        {
          "internalType": "uint256",
          "name": "",
          "type": "uint256"
        }
      ],
      "stateMutability": "view",
      "type": "function"
    }
  ],
  "bytecode": "0x60806040526001600560006101000a81548160ff0219169083151502179055503480156200002c57600080fd5b506040516200223f3803806200223f833981810160405281019062000052919062000274565b818160008060006101000a81548160ff0219169083151502179055506000620000806200022760201b60201c565b905080600060016101000a81548173ffffffffffffffffffffffffffffffffffffffff021916908373ffffffffffffffffffffffffffffffffffffffff1602179055508073ffffffffffffffffffffffffffffffffffffffff16600073ffffffffffffffffffffffffffffffffffffffff167f8be0079c531659141344cd1fd0a4f28419497f9722a3daafe3b4186f6b6457e060405160405180910390a3506127108111156200012f57600080fd5b8060038190555060008290508073ffffffffffffffffffffffffffffffffffffffff166301ffc9a7639a20483d60e01b6040518263ffffffff1660e01b81526004016200017d9190620002f2565b60206040518083038186803b1580156200019657600080fd5b505afa158015620001ab573d6000803e3d6000fd5b505050506040513d601f19601f82011682018060405250810190620001d19190620002b5565b620001db57600080fd5b80600260006101000a81548173ffffffffffffffffffffffffffffffffffffffff021916908373ffffffffffffffffffffffffffffffffffffffff1602179055505050505050620003d3565b600033905090565b600081519050620002408162000385565b92915050565b60008151905062000257816200039f565b92915050565b6000815190506200026e81620003b9565b92915050565b600080604083850312156200028857600080fd5b600062000298858286016200022f565b9250506020620002ab858286016200025d565b9150509250929050565b600060208284031215620002c857600080fd5b6000620002d88482850162000246565b91505092915050565b620002ec816200032f565b82525050565b6000602082019050620003096000830184620002e1565b92915050565b60006200031c826200035b565b9050919050565b60008115159050919050565b60007fffffffff0000000000000000000000000000000000000000000000000000000082169050919050565b600073ffffffffffffffffffffffffffffffffffffffff82169050919050565b6000819050919050565b62000390816200030f565b81146200039c57600080fd5b50565b620003aa8162000323565b8114620003b657600080fd5b50565b620003c4816200037b565b8114620003d057600080fd5b50565b611e5c80620003e36000396000f3fe6080604052600436106101095760003560e01c806385b861881161009557806396b5a7551161006457806396b5a7551461032a578063c55d0f5614610353578063dd1b7a0f14610390578063eac9d94c146103bb578063f2fde38b146103e657610109565b806385b8618814610280578063878eb368146102ab5780638a98a9cc146102d45780638da5cb5b146102ff57610109565b80635fd8c710116100dc5780635fd8c710146101bb578063715018a6146101d257806378bd7935146101e957806380edef8e1461022a57806383b5ff8b1461025557610109565b806327ebe40a1461010e578063454a2ab314610137578063484eccb4146101535780635c975abb14610190575b600080fd5b34801561011a57600080fd5b506101356004803603810190610130919061154c565b61040f565b005b610151600480360381019061014c9190611523565b610550565b005b34801561015f57600080fd5b5061017a60048036038101906101759190611523565b610665565b60405161018791906117a3565b60405180910390f35b34801561019c57600080fd5b506101a5610680565b6040516101b2919061170d565b60405180910390f35b3480156101c757600080fd5b506101d0610696565b005b3480156101de57600080fd5b506101e76106c0565b005b3480156101f557600080fd5b50610210600480360381019061020b9190611523565b6107fc565b6040516102219594939291906116ba565b60405180910390f35b34801561023657600080fd5b5061023f61091d565b60405161024c9190611668565b60405180910390f35b34801561026157600080fd5b5061026a610943565b60405161027791906117a3565b60405180910390f35b34801561028c57600080fd5b50610295610949565b6040516102a2919061170d565b60405180910390f35b3480156102b757600080fd5b506102d260048036038101906102cd9190611523565b61095c565b005b3480156102e057600080fd5b506102e9610a7a565b6040516102f691906117a3565b60405180910390f35b34801561030b57600080fd5b50610314610a80565b6040516103219190611668565b60405180910390f35b34801561033657600080fd5b50610351600480360381019061034c9190611523565b610aa9565b005b34801561035f57600080fd5b5061037a60048036038101906103759190611523565b610b42565b60405161038791906117a3565b60405180910390f35b34801561039c57600080fd5b506103a5610b7d565b6040516103b29190611728565b60405180910390f35b3480156103c757600080fd5b506103d0610ba3565b6040516103dd91906117a3565b60405180910390f35b3480156103f257600080fd5b5061040d600480360381019061040891906114fa565b610c26565b005b836fffffffffffffffffffffffffffffffff16841461042d57600080fd5b826fffffffffffffffffffffffffffffffff16831461044b57600080fd5b8167ffffffffffffffff16821461046157600080fd5b600260009054906101000a900473ffffffffffffffffffffffffffffffffffffffff1673ffffffffffffffffffffffffffffffffffffffff163373ffffffffffffffffffffffffffffffffffffffff16146104bb57600080fd5b6104c58186610dd2565b60006040518060a001604052808373ffffffffffffffffffffffffffffffffffffffff168152602001866fffffffffffffffffffffffffffffffff168152602001856fffffffffffffffffffffffffffffffff1681526020018467ffffffffffffffff1681526020014267ffffffffffffffff1681525090506105488682610e67565b505050505050565b60006004600083815260200190815260200160002060000160009054906101000a900473ffffffffffffffffffffffffffffffffffffffff16905060006105978334611038565b90506105a33384611180565b600260009054906101000a900473ffffffffffffffffffffffffffffffffffffffff1673ffffffffffffffffffffffffffffffffffffffff168273ffffffffffffffffffffffffffffffffffffffff16141561066057806007600560065461060b9190611cc8565b60058110610642577f4e487b7100000000000000000000000000000000000000000000000000000000600052603260045260246000fd5b01819055506006600081548092919061065a90611c7f565b91905055505b505050565b6007816005811061067557600080fd5b016000915090505481565b60008060009054906101000a900460ff16905090565b6000600260009054906101000a900473ffffffffffffffffffffffffffffffffffffffff16905050565b6106c8611215565b73ffffffffffffffffffffffffffffffffffffffff166106e6610a80565b73ffffffffffffffffffffffffffffffffffffffff161461073c576040517f08c379a000000000000000000000000000000000000000000000000000000000815260040161073390611783565b60405180910390fd5b600073ffffffffffffffffffffffffffffffffffffffff16600060019054906101000a900473ffffffffffffffffffffffffffffffffffffffff1673ffffffffffffffffffffffffffffffffffffffff167f8be0079c531659141344cd1fd0a4f28419497f9722a3daafe3b4186f6b6457e060405160405180910390a360008060016101000a81548173ffffffffffffffffffffffffffffffffffffffff021916908373ffffffffffffffffffffffffffffffffffffffff160217905550565b6000806000806000806004600088815260200190815260200160002090506108238161121d565b61082c57600080fd5b8060000160009054906101000a900473ffffffffffffffffffffffffffffffffffffffff168160010160009054906101000a90046fffffffffffffffffffffffffffffffff168260010160109054906101000a90046fffffffffffffffffffffffffffffffff168360020160009054906101000a900467ffffffffffffffff168460020160089054906101000a900467ffffffffffffffff16836fffffffffffffffffffffffffffffffff169350826fffffffffffffffffffffffffffffffff1692508167ffffffffffffffff1691508067ffffffffffffffff169050955095509550955095505091939590929450565b600160009054906101000a900473ffffffffffffffffffffffffffffffffffffffff1681565b60035481565b600560009054906101000a900460ff1681565b610964610680565b6109a3576040517f08c379a000000000000000000000000000000000000000000000000000000000815260040161099a90611743565b60405180910390fd5b6109ab611215565b73ffffffffffffffffffffffffffffffffffffffff166109c9610a80565b73ffffffffffffffffffffffffffffffffffffffff1614610a1f576040517f08c379a0000000000000000000000000000000000000000000000000000000008152600401610a1690611783565b60405180910390fd5b6000600460008381526020019081526020016000209050610a3f8161121d565b610a4857600080fd5b610a76828260000160009054906101000a900473ffffffffffffffffffffffffffffffffffffffff1661124b565b5050565b60065481565b60008060019054906101000a900473ffffffffffffffffffffffffffffffffffffffff16905090565b6000600460008381526020019081526020016000209050610ac98161121d565b610ad257600080fd5b60008160000160009054906101000a900473ffffffffffffffffffffffffffffffffffffffff1690508073ffffffffffffffffffffffffffffffffffffffff163373ffffffffffffffffffffffffffffffffffffffff1614610b3357600080fd5b610b3d838261124b565b505050565b600080600460008481526020019081526020016000209050610b638161121d565b610b6c57600080fd5b610b7581611299565b915050919050565b600260009054906101000a900473ffffffffffffffffffffffffffffffffffffffff1681565b6000806000905060005b6005811015610c125760078160058110610bf0577f4e487b7100000000000000000000000000000000000000000000000000000000600052603260045260246000fd5b015482610bfd91906118df565b91508080610c0a90611c7f565b915050610bad565b50600581610c20919061199f565b91505090565b610c2e611215565b73ffffffffffffffffffffffffffffffffffffffff16610c4c610a80565b73ffffffffffffffffffffffffffffffffffffffff1614610ca2576040517f08c379a0000000000000000000000000000000000000000000000000000000008152600401610c9990611783565b60405180910390fd5b600073ffffffffffffffffffffffffffffffffffffffff168173ffffffffffffffffffffffffffffffffffffffff161415610d12576040517f08c379a0000000000000000000000000000000000000000000000000000000008152600401610d0990611763565b60405180910390fd5b8073ffffffffffffffffffffffffffffffffffffffff16600060019054906101000a900473ffffffffffffffffffffffffffffffffffffffff1673ffffffffffffffffffffffffffffffffffffffff167f8be0079c531659141344cd1fd0a4f28419497f9722a3daafe3b4186f6b6457e060405160405180910390a380600060016101000a81548173ffffffffffffffffffffffffffffffffffffffff021916908373ffffffffffffffffffffffffffffffffffffffff16021790555050565b600260009054906101000a900473ffffffffffffffffffffffffffffffffffffffff1673ffffffffffffffffffffffffffffffffffffffff166323b872dd3384846040518463ffffffff1660e01b8152600401610e3193929190611683565b600060405180830381600087803b158015610e4b57600080fd5b505af1158015610e5f573d6000803e3d6000fd5b505050505050565b603c816060015167ffffffffffffffff161015610e8357600080fd5b806004600084815260200190815260200160002060008201518160000160006101000a81548173ffffffffffffffffffffffffffffffffffffffff021916908373ffffffffffffffffffffffffffffffffffffffff16021790555060208201518160010160006101000a8154816fffffffffffffffffffffffffffffffff02191690836fffffffffffffffffffffffffffffffff16021790555060408201518160010160106101000a8154816fffffffffffffffffffffffffffffffff02191690836fffffffffffffffffffffffffffffffff16021790555060608201518160020160006101000a81548167ffffffffffffffff021916908367ffffffffffffffff16021790555060808201518160020160086101000a81548167ffffffffffffffff021916908367ffffffffffffffff1602179055509050507fa9c8dfcda5664a5a124c713e386da27de87432d5b668e79458501eb296389ba78282602001516fffffffffffffffffffffffffffffffff1683604001516fffffffffffffffffffffffffffffffff16846060015167ffffffffffffffff1660405161102c94939291906117f5565b60405180910390a15050565b6000806004600085815260200190815260200160002090506110598161121d565b61106257600080fd5b600061106d82611299565b90508084101561107c57600080fd5b60008260000160009054906101000a900473ffffffffffffffffffffffffffffffffffffffff1690506110ae86611395565b600082111561111e5760006110c283611451565b9050600081846110d29190611bd5565b90508273ffffffffffffffffffffffffffffffffffffffff166108fc829081150290604051600060405180830381858888f1935050505015801561111a573d6000803e3d6000fd5b5050505b6000828661112c9190611bd5565b90506111383382611180565b7f4fcc30d90a842164dd58501ab874a101a3749c3d4747139cefe7c876f4ccebd287843360405161116b939291906117be565b60405180910390a18294505050505092915050565b600260009054906101000a900473ffffffffffffffffffffffffffffffffffffffff1673ffffffffffffffffffffffffffffffffffffffff166323b872dd8330846040518463ffffffff1660e01b81526004016111df93929190611683565b600060405180830381600087803b1580156111f957600080fd5b505af115801561120d573d6000803e3d6000fd5b505050505050565b600033905090565b6000808260020160089054906101000a900467ffffffffffffffff1667ffffffffffffffff16119050919050565b61125482611395565b61125e8183611180565b7f2809c7e17bf978fbc7194c0a694b638c4215e9140cacc6c38ca36010b45697df8260405161128d91906117a3565b60405180910390a15050565b600080600090508260020160089054906101000a900467ffffffffffffffff1667ffffffffffffffff164211156112fb578260020160089054906101000a900467ffffffffffffffff1667ffffffffffffffff16426112f89190611bd5565b90505b61138d8360010160009054906101000a90046fffffffffffffffffffffffffffffffff166fffffffffffffffffffffffffffffffff168460010160109054906101000a90046fffffffffffffffffffffffffffffffff166fffffffffffffffffffffffffffffffff168560020160009054906101000a900467ffffffffffffffff1667ffffffffffffffff1684611475565b915050919050565b60046000828152602001908152602001600020600080820160006101000a81549073ffffffffffffffffffffffffffffffffffffffff02191690556001820160006101000a8154906fffffffffffffffffffffffffffffffff02191690556001820160106101000a8154906fffffffffffffffffffffffffffffffff02191690556002820160006101000a81549067ffffffffffffffff02191690556002820160086101000a81549067ffffffffffffffff0219169055505050565b6000612710600354836114649190611ae7565b61146e919061199f565b9050919050565b6000828210611486578390506114c8565b600085856114949190611b41565b905060008484836114a591906119d0565b6114af9190611935565b9050600081886114bf919061184b565b90508093505050505b949350505050565b6000813590506114df81611df8565b92915050565b6000813590506114f481611e0f565b92915050565b60006020828403121561150c57600080fd5b600061151a848285016114d0565b91505092915050565b60006020828403121561153557600080fd5b6000611543848285016114e5565b91505092915050565b600080600080600060a0868803121561156457600080fd5b6000611572888289016114e5565b9550506020611583888289016114e5565b9450506040611594888289016114e5565b93505060606115a5888289016114e5565b92505060806115b6888289016114d0565b9150509295509295909350565b6115cc81611c09565b82525050565b6115db81611c1b565b82525050565b6115ea81611c5b565b82525050565b60006115fd60148361183a565b915061160882611d57565b602082019050919050565b600061162060268361183a565b915061162b82611d80565b604082019050919050565b600061164360208361183a565b915061164e82611dcf565b602082019050919050565b61166281611c51565b82525050565b600060208201905061167d60008301846115c3565b92915050565b600060608201905061169860008301866115c3565b6116a560208301856115c3565b6116b26040830184611659565b949350505050565b600060a0820190506116cf60008301886115c3565b6116dc6020830187611659565b6116e96040830186611659565b6116f66060830185611659565b6117036080830184611659565b9695505050505050565b600060208201905061172260008301846115d2565b92915050565b600060208201905061173d60008301846115e1565b92915050565b6000602082019050818103600083015261175c816115f0565b9050919050565b6000602082019050818103600083015261177c81611613565b9050919050565b6000602082019050818103600083015261179c81611636565b9050919050565b60006020820190506117b86000830184611659565b92915050565b60006060820190506117d36000830186611659565b6117e06020830185611659565b6117ed60408301846115c3565b949350505050565b600060808201905061180a6000830187611659565b6118176020830186611659565b6118246040830185611659565b6118316060830184611659565b95945050505050565b600082825260208201905092915050565b600061185682611c27565b915061186183611c27565b9250817f7fffffffffffffffffffffffffffffffffffffffffffffffffffffffffffffff0383136000831215161561189c5761189b611cf9565b5b817f80000000000000000000000000000000000000000000000000000000000000000383126000831216156118d4576118d3611cf9565b5b828201905092915050565b60006118ea82611c51565b91506118f583611c51565b9250827fffffffffffffffffffffffffffffffffffffffffffffffffffffffffffffffff0382111561192a57611929611cf9565b5b828201905092915050565b600061194082611c27565b915061194b83611c27565b92508261195b5761195a611d28565b5b600160000383147f80000000000000000000000000000000000000000000000000000000000000008314161561199457611993611cf9565b5b828205905092915050565b60006119aa82611c51565b91506119b583611c51565b9250826119c5576119c4611d28565b5b828204905092915050565b60006119db82611c27565b91506119e683611c27565b9250827f7fffffffffffffffffffffffffffffffffffffffffffffffffffffffffffffff0482116000841360008413161615611a2557611a24611cf9565b5b817f80000000000000000000000000000000000000000000000000000000000000000583126000841260008413161615611a6257611a61611cf9565b5b827f80000000000000000000000000000000000000000000000000000000000000000582126000841360008412161615611a9f57611a9e611cf9565b5b827f7fffffffffffffffffffffffffffffffffffffffffffffffffffffffffffffff0582126000841260008412161615611adc57611adb611cf9565b5b828202905092915050565b6000611af282611c51565b9150611afd83611c51565b9250817fffffffffffffffffffffffffffffffffffffffffffffffffffffffffffffffff0483118215151615611b3657611b35611cf9565b5b828202905092915050565b6000611b4c82611c27565b9150611b5783611c27565b9250827f800000000000000000000000000000000000000000000000000000000000000001821260008412151615611b9257611b91611cf9565b5b827f7fffffffffffffffffffffffffffffffffffffffffffffffffffffffffffffff018213600084121615611bca57611bc9611cf9565b5b828203905092915050565b6000611be082611c51565b9150611beb83611c51565b925082821015611bfe57611bfd611cf9565b5b828203905092915050565b6000611c1482611c31565b9050919050565b60008115159050919050565b6000819050919050565b600073ffffffffffffffffffffffffffffffffffffffff82169050919050565b6000819050919050565b6000611c6682611c6d565b9050919050565b6000611c7882611c31565b9050919050565b6000611c8a82611c51565b91507fffffffffffffffffffffffffffffffffffffffffffffffffffffffffffffffff821415611cbd57611cbc611cf9565b5b600182019050919050565b6000611cd382611c51565b9150611cde83611c51565b925082611cee57611ced611d28565b5b828206905092915050565b7f4e487b7100000000000000000000000000000000000000000000000000000000600052601160045260246000fd5b7f4e487b7100000000000000000000000000000000000000000000000000000000600052601260045260246000fd5b7f5061757361626c653a206e6f7420706175736564000000000000000000000000600082015250565b7f4f776e61626c653a206e6577206f776e657220697320746865207a65726f206160008201527f6464726573730000000000000000000000000000000000000000000000000000602082015250565b7f4f776e61626c653a2063616c6c6572206973206e6f7420746865206f776e6572600082015250565b611e0181611c09565b8114611e0c57600080fd5b50565b611e1881611c51565b8114611e2357600080fd5b5056fea26469706673582212208ccf57f39c4bf02d5d4175ec62c9aef6fed99e30aa823135336340645abdec2b64736f6c63430008040033",
  "immutableReferences": {},
  "source": "// SPDX-License-Identifier: UNLICENSED\npragma solidity ^0.8.4;\nimport \"./ClockAuction.sol\";\n\n\n/// @title Clock auction modified for sale of kitties\n/// @notice We omit a fallback function to prevent accidental sends to this contract.\ncontract SaleClockAuction is ClockAuction {\n\n    // @dev Sanity check that allows us to ensure that we are pointing to the\n    //  right auction in our setSaleAuctionAddress() call.\n    bool public isSaleClockAuction = true;\n\n    // Tracks last 5 sale price of gen0 kitty sales\n    uint256 public gen0SaleCount;\n    uint256[5] public lastGen0SalePrices;\n\n    // Delegate constructor\n    constructor(address _nftAddr, uint256 _cut)\n        ClockAuction(_nftAddr, _cut) {}\n\n    /// @dev Creates and begins a new auction.\n    /// @param _tokenId - ID of token to auction, sender must be owner.\n    /// @param _startingPrice - Price of item (in wei) at beginning of auction.\n    /// @param _endingPrice - Price of item (in wei) at end of auction.\n    /// @param _duration - Length of auction (in seconds).\n    /// @param _seller - Seller, if not the message sender\n    function createAuction(\n        uint256 _tokenId,\n        uint256 _startingPrice,\n        uint256 _endingPrice,\n        uint256 _duration,\n        address _seller\n    )\n        override external\n    {\n        // Sanity check that no inputs overflow how many bits we've allocated\n        // to store them in the auction struct.\n        require(_startingPrice == uint256(uint128(_startingPrice)));\n        require(_endingPrice == uint256(uint128(_endingPrice)));\n        require(_duration == uint256(uint64(_duration)));\n\n        require(msg.sender == address(nonFungibleContract));\n        _escrow(_seller, _tokenId);\n        Auction memory auction = Auction(\n            payable(_seller),\n            uint128(_startingPrice),\n            uint128(_endingPrice),\n            uint64(_duration),\n            uint64(block.timestamp)\n        );\n        _addAuction(_tokenId, auction);\n    }\n\n    /// @dev Updates lastSalePrice if seller is the nft contract\n    /// Otherwise, works the same as default bid method.\n    function bid(uint256 _tokenId)\n        override external\n        payable\n    {\n        // _bid verifies token ID size\n        address seller = tokenIdToAuction[_tokenId].seller;\n        uint256 price = _bid(_tokenId, msg.value);\n        _transfer(msg.sender, _tokenId);\n\n        // If not a gen0 auction, exit\n        if (seller == address(nonFungibleContract)) {\n            // Track gen0 sale prices\n            lastGen0SalePrices[gen0SaleCount % 5] = price;\n            gen0SaleCount++;\n        }\n    }\n\n    function averageGen0SalePrice() external view returns (uint256) {\n        uint256 sum = 0;\n        for (uint256 i = 0; i < 5; i++) {\n            sum += lastGen0SalePrices[i];\n        }\n        return sum / 5;\n    }\n\n}\n",
  "sourcePath": "E:/general_work/upwork/202105/CryptoZoo-NFT3-main/contracts/SaleClockAuction.sol",
  "compiler": {
    "name": "solc",
    "version": "0.8.4+commit.c7e474f2.Emscripten.clang"
  },
  "schemaVersion": "3.4.0",
  "updatedAt": "2021-05-06T02:09:02.046Z",
  "devdoc": {
    "kind": "dev",
    "methods": {
      "bid(uint256)": {
        "details": "Updates lastSalePrice if seller is the nft contract Otherwise, works the same as default bid method."
      },
      "cancelAuction(uint256)": {
        "details": "Cancels an auction that hasn't been won yet.  Returns the NFT to original owner.",
        "params": {
          "_tokenId": "- ID of token on auction"
        }
      },
      "cancelAuctionWhenPaused(uint256)": {
        "details": "Cancels an auction when the contract is paused.  Only the owner may do this, and NFTs are returned to  the seller. This should only be used in emergencies.",
        "params": {
          "_tokenId": "- ID of the NFT on auction to cancel."
        }
      },
      "createAuction(uint256,uint256,uint256,uint256,address)": {
        "details": "Creates and begins a new auction.",
        "params": {
          "_duration": "- Length of auction (in seconds).",
          "_endingPrice": "- Price of item (in wei) at end of auction.",
          "_seller": "- Seller, if not the message sender",
          "_startingPrice": "- Price of item (in wei) at beginning of auction.",
          "_tokenId": "- ID of token to auction, sender must be owner."
        }
      },
      "getAuction(uint256)": {
        "details": "Returns auction info for an NFT on auction.",
        "params": {
          "_tokenId": "- ID of NFT on auction."
        }
      },
      "getCurrentPrice(uint256)": {
        "details": "Returns the current price of an auction.",
        "params": {
          "_tokenId": "- ID of the token price we are checking."
        }
      },
      "owner()": {
        "details": "Returns the address of the current owner."
      },
      "paused()": {
        "details": "Returns true if the contract is paused, and false otherwise."
      },
      "renounceOwnership()": {
        "details": "Leaves the contract without owner. It will not be possible to call `onlyOwner` functions anymore. Can only be called by the current owner. NOTE: Renouncing ownership will leave the contract without an owner, thereby removing any functionality that is only available to the owner."
      },
      "transferOwnership(address)": {
        "details": "Transfers ownership of the contract to a new account (`newOwner`). Can only be called by the current owner."
      },
      "withdrawBalance()": {
        "details": "Remove all Ether from the contract, which is the owner's cuts  as well as any Ether sent directly to the contract address.  Always transfers to the NFT contract, but can be called either by  the owner or the NFT contract."
      }
    },
    "title": "Clock auction modified for sale of kitties",
    "version": 1
  },
  "userdoc": {
    "kind": "user",
    "methods": {
      "cancelAuction(uint256)": {
        "notice": "This is a state-modifying function that can  be called while the contract is paused."
      }
    },
    "notice": "We omit a fallback function to prevent accidental sends to this contract.",
    "version": 1
  }
}